:10000000001000205D030000890300008903000048
:1000100089030000890300008903000089030000B0
:1000200089030000890300008903000089030000A0
:10003000890300008903000089030000692700008C
:100040008903000089030000890300008903000080
:100050008903000089030000890300008903000070
:100060008903000089030000890300008903000060
:100070008903000089030000890300008903000050
:1000800089030000890300008903000010B5064CB5
:100090002378002B07D1054B002B02D0044800E049
:1000A00000BF0123237010BD8C0000200000000061
:1000B000D040000008B5084B002B03D00748084982
:1000C00000E000BF07480368002B03D0064B002B5D
:1000D00000D0984708BDC04600000000D040000096
:1000E000900000208800002000000000164B002B2C
:1000F00000D1144B9D46402292029A1A924600214A
:100100008B460F461348144A121A02F05EFD0F4B3D
:10011000002B00D098470E4B002B00D098470020B2
:10012000002104000D000D48002802D00C4800E01A
:1001300000BF02F01BFD2000290002F01DFB02F0B1
:100140000BFCC0460000080000100020000000006A
:10015000000000008C00002074030020000000005C
:100160000000000030B5204B85B06A4623CB23C287
:100170001B681E4813601E4A002313601D4A01219C
:10018000136001F0C3FD1C48012101F0BFFD1B48B5
:10019000012101F0BBFD1A48012101F0B7FD194D05
:1001A0001948062101F036FFE1235B02281C69464D
:1001B000029302F069F9032004210422012302F0D2
:1001C00049F8032005210122012302F043F8002011
:1001D00009210422012302F03DF86A6D0323134331
:1001E00000206B6505B030BD8439000040810400FB
:1001F000A8000020AC00002000720400700714006A
:10020000002302000040084003001A0008B543071D
:1002100001D5FFF7A7FF002008BDC04608B50B4871
:10022000012101F073FD0A48012101F06FFD022058
:100230000A210422002302F00DF802200B210422DF
:10024000002302F007F8002008BDC04640810400EA
:1002500000720400F0B5374C574645464E46364AC4
:10026000E0B4271C80461037012592464346267885
:100270002B4213D062689146002E23D0012E4AD023
:10028000022E4ED0032E4AD0042E4ED03F23052EF0
:1002900019D02948294901F031FB18E063689946D3
:1002A000002E27D0012E34D0022E3CD0032E34D085
:1002B000042E3CD03F23052E1DD05046204901F08E
:1002C0001DFB1CE01F4B4A461341DA07E1D54A46A5
:1002D00001239340F20096191B4AB600B61833600A
:1002E00008346D00BC42C1D100201CBC9046994628
:1002F000A246F0BD134B4A461341DA07DDD54A4604
:1003000001239340F20096190F4AB600B6187360A5
:10031000E6E70E4BEFE70D4BD5E70D4BEBE70C4B4C
:10032000D1E70C4BCFE70B4BE5E70B4BCBE70A4B89
:10033000E1E7C046003A000094390000F3020000F3
:10034000C60200007FF7000010600040F87900004E
:10035000FF010000FFFF0000F0FF0000064880479B
:100360000649074A074B9B1A03DD043BC858D05087
:10037000FBDCFFF7BBFE0000E1040000DC400000F6
:10038000000000208C000020FEE7C046224AF02337
:10039000D16A9B010B40802149018B4226D08021EC
:1003A00089018B421FD0802109018B4210D0D26875
:1003B000E023DB00134080229200934229D018D81A
:1003C000002B24D08022520093421CD1134A01E01A
:1003D000134B1A68104B0F205B681840114BC2403A
:1003E000101C1A607047104B1A68F3E78022120243
:1003F000F0E7C0229200934207D08022D2009342BD
:1004000001D10A4AE6E70022E4E7094AE2E7094A9D
:10041000E0E7094ADEE7C04600800C4040B56400D2
:1004200004000020D801002000000020406F40019F
:10043000809FD500804F1200C0D8A70000487047A9
:1004400000366E011E4AF023D16A9B010B408021C9
:1004500049018B421ED0802189018B4217D0802117
:1004600009018B4210D0D268E023DB0013408022C8
:100470009200934221D010D8002B1CD08022520031
:10048000934214D10F4801E00F4B186870470F4B8F
:100490001868FBE780200002F8E7C0229200934230
:1004A00007D08022D200934201D10948EEE7002014
:1004B000ECE70848EAE70848E8E70848E6E7C04606
:1004C00000800C4040B564000400002000000020C3
:1004D000406F4001809FD500804F1200C0D8A70018
:1004E0007047C046802000027047C046FA20800056
:1004F0007047C046014B18687047C0460000002096
:100500000B4B10B51A78002A10D10A4C01221A7030
:100510002368002B0AD0043404E00434231F1B6832
:10052000002B03D098470028F7D010BD0020FCE72F
:10053000E00000200800002008B50A4B1B78002BC3
:1005400001D1094808BD002801DD0848FAE72C233D
:100550005843074B2C221B18081C191C02F02CFBBB
:100560000020EFE7E000002005001180020011806C
:10057000B400002008B50C4B011C1B78002B01D1E6
:100580000A4808BD0A4A1368002B01DD0948F8E74C
:10059000581C10602C20434307482C22C01802F03E
:1005A0000BFB0020EDE7C046E000002005001180B5
:1005B000B000002001001180B400002010B5802997
:1005C00001D0094810BD0949094C08681201821878
:1005D0008034A24203D900221A600648F2E718606C
:1005E0000A600020EEE7C0460200118010000020E3
:1005F000E4000020010011800048704704001180D1
:1006000008B500F037F900F0F1F8002008BDC04649
:1006100070B50D1C1E1C0024002B08D0281C0021C6
:100620001022013402F0D1FA1035B442F6D1002084
:1006300070BDC046F0B54F464646C0B40D1C83B0F1
:100640000B2104200B9E00F039F9062000F018F968
:100650000A9B684601339BB21A0299460123134351
:1006600002216A46138000F0E3F80123FF22771E7F
:10067000002499449046002E15D0281C102100F02B
:10068000D7F81035A7421BD04A4613191B02424621
:1006900013439BB26A46684602210134138000F07E
:1006A000C7F8B442E9D1022000F0EAF80B21042097
:1006B00000F044F9002003B00CBC90469946F0BD10
:1006C000004BE7E7FFFF000008B50020002908D134
:1006D0000A2100F033F90020082100F02FF9002052
:1006E00008BD082100F0EAF80A21002000F0E6F831
:1006F000F5E7C04610B58CB000F0BCF800F076F815
:1007000000F0C4F80F2100220023022000F0C8F8F6
:10071000072100220023032000F0C2F80B21002251
:100720000023042000F0BCF8082100220023002050
:1007300000F0B6F80A2100220023002000F0B0F8F3
:100740000A2100220023042000F0AAF804200A2134
:10075000402200F033F9041E02D0201C0CB010BD62
:100760001B4A01A801920122027480224260C260E9
:100770008260184A44744261174A8261174AC26112
:10078000174A0262174A4262174A8262FFF7F2FE74
:10079000041EE2D10821002000F090F80A21002078
:1007A00000F08CF80B21042000F088F8062000F0FF
:1007B00067F86846042302210230038000F038F80D
:1007C000022000F05DF80B21042000F0B7F8C4E728
:1007D000103A0000C9060000BD050000F905000040
:1007E00035060000110600000106000030B50B4A76
:1007F00087B06B4623CA23C323CA23C3084D0948C5
:10080000012101F083FA084B281C6946029301F08C
:1008100011FF064B00206B6507B030BD283A000081
:1008200000C4004000320400E06735000A03000005
:1008300070B5051C0C1C0126002C0BD0012C01D01E
:1008400035420ED029780A48013C01F081FF01357C
:10085000002CF3D1064920220B691A42FCD000205B
:1008600070BD2988024801F079FF023C0235E3E7B8
:1008700000C4004008B500F031FF002008BDC046AC
:1008800008B501F027F8002008BDC04608B50348A8
:10089000012101F03BFA002008BDC04600720400AF
:1008A00008B5002A01D0044808BDC0B2042201F0F6
:1008B000D1FC0020F8E7C0460100138038B5C3B270
:1008C000041C0D1C002B0ED0012B1DD0022B1FD0A1
:1008D000032B1BD0042B1DD0052B1DD00F48104916
:1008E00001F00CF803E00F4B2B41DA07F6D5FF239C
:1008F0001C400123AB401D1CE3001C190A4BA40043
:10090000E4182561002038BD084BEDE7084BEBE704
:10091000084BE9E7084BE7E73F23E5E79439000098
:10092000F30200007FF7000000600040F87900004B
:10093000FF010000FFFF0000F0FF000038B5C3B268
:10094000041C0D1C002B0ED0012B1DD0022B1FD020
:10095000032B1BD0042B1DD0052B1DD00F48104995
:1009600000F0CCFF03E00F4B2B41DA07F6D5FF2355
:100970001C400123AB401D1CE3001C190A4BA400C2
:10098000E4186560002038BD084BEDE7084BEBE745
:10099000084BE9E7084BE7E73F23E5E79439000018
:1009A000C60200007FF7000010600040F8790000E8
:1009B000FF010000FFFF0000F0FF000070B5051C04
:1009C00082B00C1C28480121161C01F09FF9A021BF
:1009D00002208903012201F0C1FD244B244A9968B9
:1009E000E8B20A40802189000A439A60996804228B
:1009F0000A439A60211C0023042201F02BFC1D49AC
:100A000001AC0322201C183102F0D6F81A4D1B4805
:100A1000012101F07BF91A48092101F0FBFA281C99
:100A2000022101F069F80121281C01F06FF900236F
:100A300023706370201C0123A37001F0DFFD281CCC
:100A400001F0AAF9311C01F019FF411E0902090A3F
:100A5000002001F09FFD01F0E1FD012001F0B8FD53
:100A6000002002B070BDC0460042040000C00C402F
:100A7000FFF8FFFF283A0000600610000023020084
:100A80000200180000207047FEE7C04680239B014B
:100A900000204B607047C04601207047002070471F
:100AA00070B50E1C151C0024002A04D10DE0305531
:100AB0000134A54207D000F065F8431CF7D1002CA3
:100AC00003D0201C70BD281CFCE701204042F9E740
:100AD000104A38B51368002B07D01818EFF30881B7
:100AE000884205D81060181C38BD0B4B1360F4E722
:100AF0000A4B1B68986801F045FF094C251C193505
:100B00002078013400F042F8AC42F9D1012001F024
:100B100023FFC04664010020780300207C000020F1
:100B2000443A000070B5161C0C1C8D18002A05DD17
:100B30002078013400F02AF8AC42F9D1301C70BDA5
:100B400010B58EB0002003A9FFF7F6FC041E02D0FA
:100B5000201C0EB010BD01A80123084901940471A6
:100B6000437100F057FB041EF2D1054B00211B68B6
:100B700002229868002302F0B1F8E9E7680100203A
:100B80007C000020012040427047C046064B10B553
:100B9000041C1868002804D0211C00F0D3FB201C82
:100BA00010BD01204042FBE768010020F0B5564629
:100BB0004D4644465F46F0B487B005918900061C57
:100BC000C56B8846006BA7498246002789460124E9
:100BD0005146002900D141E1337D301C9C466146DD
:100BE0000023BC4600220391071C6FE0DE10AE1903
:100BF0000720039618403678211C814003988E43C5
:100C00000670049E591C70088B46044200D086E092
:100C1000C9108A465E4607210E40AA44211CB140F5
:100C20005646367840088E4351460E70C0B29E1C20
:100C3000B346044200D085E0F610B2465946072676
:100C40003140AA44261C8E40514609784008B143E1
:100C500056463170D91C8B46044200D084E0C9103E
:100C60008A465E4607210E40AA44211CB1405646E2
:100C7000367840088E4351460E701E1DB34604421E
:100C800000D083E0F610B246594607263140AA4408
:100C9000261C8E4051460978B143564631700226D3
:100CA000591D064200D082E0C8100726281831409E
:100CB000261C8E400178B14301703E7D386B03964F
:100CC000824601320633524500D382E07E6C4046B4
:100CD0003158CB46885CE3445E46305C0490039810
:100CE000002805D00128ECD10499C843C0B2049073
:100CF000049E344200D179E7DE10AE1903960398C2
:100D0000072119400078261C8E4030430399049E29
:100D10000870591C70088B46044200D178E7CE1049
:100D2000B24607263140AA44261C8E405146097817
:100D300040080E4351460E70C0B29E1CB34604429A
:100D400000D179E7F1108A4607210E40AA44211C00
:100D5000B140564636784008314356463170D91C6A
:100D60008B46044200D17AE7CE10B24607263140C6
:100D7000AA44261C8E405146097840080E4351462D
:100D80000E701E1DB346044200D17BE7F1108A4667
:100D900007210E40AA44211CB14056463678314303
:100DA000564631700226591D064200D17CE7C81014
:100DB000072628183140261C8E40017801320E4348
:100DC0000670386B3E7D824603960633524500D24C
:100DD0007CE703993B1C1E1C67468C466346012B2F
:100DE0001DD0F0686437C308ED18C8239B009F42EC
:100DF00000D0EDE6059C52465300E200F16B0092F4
:100E0000082201925344301D5B00746A0022A047FF
:100E100007B03CBC90469946A246AB46F0BD530095
:100E20009A185200072313400DD06046D110984005
:100E300049190138824608788B46514601400832EC
:100E400058460170D21AB168D0108A1AD2082818F0
:100E5000FF2101F0BAFE326B9246C2E7327D944622
:100E60000022BBE7783A0000F0B5474680B454232F
:100E7000C35C82B0041C012B1CD0002B07D00020C7
:100E8000022B00D1254802B004BC9046F0BD437D42
:100E9000002BF7D1436B002B08D00025291C201C08
:100EA000FFF784FE636B0135AB42F7D82269DB00A4
:100EB000934207D3637D002BE4D1216D201CFFF703
:100EC00075FEE0E7237D002B20D0012BDAD1A66848
:100ED000E06BF208FF2101F078FE626B2369D50018
:100EE0009D42E7D20126271DB04603E02269013565
:100EF000AA42DFD9424601920095381CE16B0022DC
:100F0000A368666AB0470028F0D0BCE7A368E06B2E
:100F1000DA08002101F059FEDFE7C0460400128024
:100F2000F0B5454657464E46E0B4041C0D1E0A2D4A
:100F30003AD00D2931D0082922D01B2900D107E150
:100F4000B04F3B781B2B5DD0AF4B68221B685B1901
:100F50005B789343984600D0A0E0E16C226B91420D
:100F600000D3C8E0206D636B834200D89AE0656CC3
:100F700080002B5842465A54E36C0133E3640EE080
:100F8000037D012BDCD94923C25CFF2A00D1C8E0D4
:100F9000FF22C2544A23C25401E00023C3641CBC94
:100FA00090469946A246F0BD036D0022C264426B92
:100FB000013303659342F2D33823C55C002D00D181
:100FC000A0E0012A0DD00025636CAA0098589B1858
:100FD0005968226B01F0F0FD626B0135531E9D4292
:100FE000F2D38A49636C52189200D0580021226BC8
:100FF00001F0EBFD626B0023013A22655422E364A9
:10100000A354CCE77B1C191C01335A1E1678002E02
:10101000F9D10D70381C01F033FF7D4980464246FE
:10102000381C894601F033FF002800D198E00422E3
:101030009246CA44381C5146424601F028FF002817
:1010400000D19CE008239A46CA44381C51464246C7
:1010500001F01DFF002800D1A5E00C218A46CA44FA
:10106000381C5146424601F012FF002800D1B8E07A
:1010700010229246CA44381C5146424601F007FFEE
:10108000002800D19DE014239944381C494642466B
:1010900001F0FDFE002878D03E6055E7203DEDB21E
:1010A000A8465AE73825665D002E3FD0012B0FD0A9
:1010B000002600E0226B616CB700C859C919496865
:1010C00001F07AFD636B01365A1E9642F2D3226B11
:1010D0004E495B18616C9B005858002101F075FD6A
:1010E000606B0023013854222065E364656CA354CF
:1010F000800000213DE7206D00230130E36420657E
:10110000002130E7416C002900D148E7036B002142
:101110005A43006C01F059FD5423E5642565E554FC
:101120003DE70022C2544A23C25438E7656C800070
:10113000002D00D11DE75A430021206C01F045FD30
:101140005423E6642665656CE6540021002010E710
:101150002C4B00221A60197003225423C2541EE73C
:10116000484603225423E25401F08AFE804508D009
:101170004346032B00D012E700233B600FE75046A5
:10118000EFE700232365E364F6E703225423E254E8
:10119000484601F075FE8045EAD1E36C002BEBD0A8
:1011A000013BE364E8E703225423E254504601F094
:1011B00067FE8045DCD1236D002BDDD0013B23652C
:1011C000DAE703225423E254504601F059FE8045E9
:1011D000CED1226BE36C013A9342CDD20133E3646A
:1011E000CAE703225423E254504601F049FE8045E9
:1011F000BED1626B236D013A9342BDD201332365A8
:10120000BAE7C0466C01002018000020FFFFFF3F36
:10121000603A0000F0B5474680B4454C5523E35C86
:10122000051C0E1C002B03D0424804BC9046F0BDA8
:10123000221D111C00689046FFF77EF9021EF4D1B2
:10124000637D002B60D0E26321697F2901D83A4891
:10125000EBE7A2687D2AFAD9102363631523236381
:10126000297938222F68A154697934483922A15448
:10127000334B021C1532636420645A60021C2A320C
:101280009A60021C3F32DA60021C54321A61021C5E
:1012900069325A61021C7E329A61021C9332DA6111
:1012A000021CA8321A62021CBD325A62021CD232DF
:1012B0009A62021CE732DA621221021C2760FC32B9
:1012C000FF3193271A637F0042183C215A63FF3194
:1012D000C2199A634218DA6318604822FF23A354A4
:1012E0004922A3544A22A354A8225200002101F00B
:1012F0006CFC00235422A354E3642365012255238C
:10130000E2540020346090E7231C3C334046A1683F
:101310000822E769B847002800D086E74046E16B1D
:10132000A2680823A76AB84700288DD07DE7C04689
:10133000700100200500128002001280DC010020F4
:101340002C030020F8B54D4644465F465646F0B49F
:101350005523C35C041C0D1C002B06D1C9483CBCA2
:1013600090469946A246AB46F8BD437D5A1E93412E
:101370000133542283543823C35C002B63D0C36CE5
:10138000002B04D1416B006D0139884261D00C2DD6
:1013900000D10AE13922A25C002A5CD00A2D00D1DA
:1013A00026E10D2D00D1A5E0082D00D193E0A8463F
:1013B0001B2D00D135E1B44F3A781B2A00D1AAE0A9
:1013C000B24A126855196F786822974300D096E0A8
:1013D000226B9A4200D896E0206D616B814223D83F
:1013E0003825665D002E00D10AE101290DD00025C7
:1013F000636CAE0098599B19596801F0DDFB616B75
:1014000001354B1E226B9D42F2D3A14BC918636C70
:101410008900C858002101F0D8FB606B0023013817
:101420005422E3642065A354656C80002A58D75485
:10143000E36C0133E3645423E35C032B49D0201CA9
:10144000FFF712FD8BE7C36C002BA0D1016D0029C3
:101450009DD1A3549BE70A2DA3D1236D0022E26402
:10146000626B013323659342E5D33823E55C002D9D
:1014700000D1AEE0012A0DD00025636CAA00985877
:101480009B185968226B01F097FB626B0135531E64
:101490009D42F2D37E48616C121892005058226B24
:1014A000002101F092FB626B0023013A2265542275
:1014B000E364A354C3E7504603225423E25401F0EB
:1014C000DFFC814500D1B7E04846032801D1002365
:1014D0003B60002043E7227D012A00D88DE04923AC
:1014E000E25CFF2A15D0FF22E2544A23E25454233F
:1014F000E35CA2E70023E3645423E35C9DE74746F3
:10150000203FFFB264E7206D00230130E3642065D3
:1015100063E70022E8E77B1C191C01335A1E16788A
:10152000002EF9D10D70381C01F0AAFC59498146F2
:101530004A46381C8A4601F0AAFC0028BBD0042287
:101540009346D344381C59464A4601F0A0FC002873
:1015500070D008239B46D344381C59464A4601F0B4
:1015600096FC002800D1A9E00C208346D344381C07
:1015700059464A4601F08BFC002800D18CE010212E
:101580008B46D344381C59464A4601F080FC00285B
:1015900066D014229244381C51464A4601F077FC2A
:1015A00000284DD03E60E36C0AE7626C002A09D047
:1015B000236B626B206C5A43002101F006FB002371
:1015C000E364236500225423E254201CFFF74CFC03
:1015D000C5E6636C002B00D12DE7206B0021424350
:1015E000206C01F0F2FA5423E5642565E55426E702
:1015F000201C0D21FFF794FC2FE708218846DAE62E
:10160000656C002D00D110E74A43206C002101F0E9
:10161000DCFA5423E6642665656CE654002000235A
:1016200004E7194B00221A601D7003225423E25470
:10163000002094E658463FE700232365E36446E72D
:1016400003225423E254504601F01AFC814500D095
:101650003AE7E36C002B00D139E7013BE36436E75E
:1016600003225423E254584601F00AFC814500D07D
:101670002AE7226BE36C013A934200D327E7013358
:10168000E36424E7060012806C01002018000020AB
:10169000FFFFFF3F603A000003225423E254584604
:1016A00001F0EEFB814500D00EE7626B236D013A3D
:1016B000934200D30BE70133236508E70322542349
:1016C000E254584601F0DCFB814500D0FCE6236D76
:1016D000002B00D1FBE6013B2365F8E6F0B55F4641
:1016E00056464D464446F0B489B0714906A80322D7
:1016F00001F062FA6F4B00211B6C8B465A0700D435
:10170000CFE06D4800F030FC6A4C4022E36A0321D0
:101710001A4001906848904600F07CFC674800F051
:101720009DF9802182464900644800F0E5F9A36DE7
:101730000027D90700D4AEE072B6614C23685A1C6A
:1017400001D0013323605F4B1A68D10700D47FE0DA
:101750001A6899680292DA680391D96904920022A2
:1017600005911A60DA6107229A618021564AC023E6
:1017700049015B00D1500122914600236A4606A828
:10178000937600F03BFF514880235B014D4A036094
:1017900003685B0003600BD0516853689942FCD02A
:1017A000484B59680368013BFDD853689942EFD014
:1017B0000368444A5B08036006680825760814D06D
:1017C000036833430360516853689942FCD03D4B32
:1017D00059680368013BFDD85368994202D00368F9
:1017E000B3430360013D002DE8D12368002B03D0F3
:1017F000013B2360002B4CD04B46002B31D051468F
:101800002E4800F079F9012000F0ECFE03992D4BF1
:10181000049A9960DA600299059A19600020DA61E9
:1018200000F0E0FE002F21D1019B032B25D1414682
:10183000002929D05A46002A03D02548002100F06B
:1018400065FA09B03CBC90469946A246AB46F0BD4D
:1018500000230021002205930491039202939946EC
:101860008BE7002000F0B4FE002FDDD013480021EC
:1018700000F04CFA019B032BD9D0191C0E4800F044
:10188000C9FB41460029D5D10120002200F09AFC75
:10189000D0E762B6B0E70948012100F037FA012726
:1018A0004AE70B48012100F031FA01239B4628E763
:1018B000983D000000800C400200180060061000F7
:1018C000CC0100200000084000E100E014000020EE
:1018D00000230200031C0849002B0CD0013B882286
:1018E0001202003253430A68D80AD20A50438009D0
:1018F00001D00138FDD8704714000020FEE7C04633
:1019000038B54F4B041E9C4202D04E4B984220D11A
:101910000F232340022B25D0022B51D9032B31D08A
:101920000725062B62D1464B9C4244D0454B9C4236
:1019300037D1454B9D6A2D07AD0F012D38D0002DB5
:1019400063D0022D5ED0032D56D1FEF71FFD400857
:1019500038BDF1213D484900FFF7D0FF0F23234058
:10196000022BD9D1384A0321936A0B40022B60D055
:10197000032B62D0012B5ED0936A0925DA03D2D4FF
:101980000125D0E7304A0C21936A0B40082B50D038
:101990000C2B52D0042B4ED0936A0925DA02C2D404
:1019A000EEE7832129488900FFF7A8FF012DC6D162
:1019B000FEF798FDCCE7244B03259B6A1D40BCE74E
:1019C000012B13D1204BF025DB6AAD011D40802394
:1019D0005B019D422FD080239B019D4229D01C4A50
:1019E000AD186B426B410525ED1A9CE71748194964
:1019F000FFF784FF002596E714481749FFF77EFF9D
:101A00000020A5E7FEF776FDA2E70D4B9C420CD027
:101A10000C4B9C42F4D10C4B9A6A1423DA40002000
:101A2000002A95D0FEF762FD92E7074B9A6A1023D1
:101A3000F4E7022577E7032575E7062573E7C04637
:101A40000200180003001A0000800C402C3E000029
:101A500000F8FFFF520900003702000008B50F220E
:101A600003091340052B26D017D9062B0CD0072BC2
:101A70001BD11A4B984224D1194B03201B6F012212
:101A800018408240101C0FE0164B98421FD1144B97
:101A9000986E02400120904006E0042B05D1104BC7
:101AA000986802400120904008BD0F480F49FFF799
:101AB00025FF0120F8E70A4B5868024001209040BA
:101AC000F2E709480A49FFF719FF0120ECE7064849
:101AD0000849FFF713FF0120E6E7C046700714002E
:101AE00000800C40600610002C3E0000B504000091
:101AF000AE04000094040000F0B50306474680B42D
:101B00000C1C1B0F052B62D047D9062B22D0072BAC
:101B100058D16B4B984200D0B3E0082900D9C4E0FB
:101B200068494B6DDE0700D4B5E0674B621E9A42F0
:101B300003D966486649FFF7E1FE201C00F0EEFE7F
:101B4000604B1F22196F121A03208143081C104397
:101B5000186734E05F4B984200D097E080231B0267
:101B6000994200D99CE057494B6DDA0700D4A1E0B7
:101B7000554B621E9A4203D954485549FFF7BEFEA1
:101B8000201C00F0CBFE4F4B1F22996E121A0F2023
:101B90008143081C1043986611E0042B12D14E4B70
:101BA0004D1E9D4261D8201C00F0B8FE454B1F22FF
:101BB0009968121A0F208143081C1043986004BCD6
:101BC0009046F0BD45484649FFF798FEF7E7424B7F
:101BD0004D1E9D4244D8FEF731FC424B424AD96B20
:101BE000DA635A68414A424E8018002288465F688C
:101BF000111C8642514107208743381C0843414647
:101C00005860002900D0DA632F4B9D4223D8201C56
:101C100000F084FE2B4B1F225968121A0F208143BB
:101C2000081C10435860FEF7B1FB2E4B2E4AD96BAF
:101C3000DA635A682D4A2E4C801800225D68161C03
:101C40008442564107208543281C304358600029B0
:101C5000B5D0DA63B3E71D481D49FFF74FFED6E75D
:101C60001E482449FFF74AFEB5E71C482249FFF702
:101C700045FE154B9D4296D914481549FFF73EFE87
:101C800091E716481D49FFF739FE98E713481C49AC
:101C9000FFF734FE93E740220B6D1A42FCD144E774
:101CA0000E481849FFF72AFE5DE70C481649FFF772
:101CB00025FE35E704220B6D1A42FCD158E7C046D9
:101CC0007007140000800C40FF7F0000403E0000C1
:101CD000C904000060061000FF0100002C3E000057
:101CE0008105000000000C40711B0000FFDB0BFFB2
:101CF000FF23F400FD040000F50400007B05000054
:101D000054050000190500005E050000030570B5CC
:101D10001B0F0A2B28D8174A9B00D3589F46164AF8
:101D20001024164DC0036B6DC00EDE0708D5136876
:101D300001248440A3438140181C0843106070BDF7
:101D40002B6D2342F3D02B6D2342F9D1EFE70C4AE0
:101D5000C003C00EEBE70B4AFAE70B4AF8E70B4A61
:101D6000F6E701240A4ADCE7BD210A48C900FFF76B
:101D7000C5FDE4E79C3D000060800C4000800C4005
:101D800008800C4044800C4078800C4040800C401F
:101D900058800C402C3E000008B5F8239B031840E7
:101DA000E0231B0398421FD011D9A0235B03984264
:101DB00062D03AD9C0235B03984200D16DE0D023B2
:101DC0005B0398422BD15C48FFF79AFD08BD802346
:101DD0009B0298424DD047D98023DB02984216D00F
:101DE000C0231B0398421AD1544BE0215B69C90000
:101DF00080220B40920093426FD046D8002B00D136
:101E00007EE08022520093426ED14D48DEE7FEF71D
:101E100019FB4A4B0F229B681340D840D6E749482C
:101E20004949FFF76BFD0020D0E780235B03984210
:101E3000F5D1424B03219A6A0A40013A022A5DD841
:101E40003E4A0321936A0B40022B5FD0032B59D0EB
:101E5000012B50D0936A00201B0C68D1374B0F2206
:101E60009B6E1340D840B1E70028D8D1FEF7EAFABC
:101E7000ACE7FEF78BFAA9E72F48FFF741FD2F4BA0
:101E800003221B6F1340D840A0E7C0229200934268
:101E90001CD08B4228D12D4898E7284B03219A6A01
:101EA0000A40013A022A45D8244A0321936A0B408A
:101EB000022B35D0032B2FD0012B2AD0936A002080
:101EC0001B0C00D182E7FEF711FB7FE7204BDB6C98
:101ED0001B0E122B29D91F4878E71D4BDB6C1B0EFC
:101EE000122B20D91C4871E78D2116484900FFF7B5
:101EF00005FD00206AE7FEF7F5FAAFE79B6A9FE76A
:101F0000164863E7FEF742FA4008A7E7FEF7F2FA41
:101F1000A4E7FEF7E7FA59E7FEF738FA400855E775
:101F2000FEF7E8FA52E70E4850E70E484EE7FEF794
:101F3000DDFA93E79B6AB7E703001A0000800C40C4
:101F4000C0D8A7002C3E0000AA060000406F400148
:101F5000B081E00F804F120040B56400809FD50033
:101F6000C0CF6A0040420F0008B50F230340022B88
:101F700032D015D9032B03D00720062B26D108BD5C
:101F8000204A0C21936A0B40082B34D00C2B36D0FE
:101F9000042B32D0936A0920DA02F0D40120EEE754
:101FA000012B13D1174BF020DB6A800118408023EE
:101FB0005B01984221D080239B0198421BD0124A9A
:101FC0008018434243410520C01AD8E70F48104902
:101FD000FFF794FC0020D2E70A4A0321936A0B40E2
:101FE000022B08D0032B0AD0012B06D0936A0920BC
:101FF000DA03C4D4D2E70220C1E70320BFE70620FA
:10200000BDE7C04600800C4000F8FFFF2C3E0000FA
:1020100052090000F8B50F240440012C10D0002C08
:1020200008D0032C06D8092900D99BE0564B89001B
:102030005B589F46B12155480901FFF75FFCF8BD89
:10204000092900D993E0524B89005B589F4603222F
:10205000022404234F490B62012191404E4A136828
:102060000B42FCD000F0ECF8FEF7E8F94B4B4C4A81
:10207000D96BDA635A684B4A4B4D801800225E6870
:10208000171C8542574107208643301C384358604F
:10209000002900D0DA633F4B5C6200F0D1F8FEF714
:1020A00075F93E4B3E4AD96BDA635A683D4A3E4C5D
:1020B000801800225D68161C844256410720854323
:1020C000281C304358600029B9D0DA63B7E7802272
:1020D000802352035B020021022C4DD02D4B33494B
:1020E000986A01400A439A62A9E7802309220424DE
:1020F0005B00AFE7072203244023ABE72C4B04220D
:1021000019680A431A6003210C220023E4E7214BDB
:10211000402221491A6280220B681A42FCD000F04A
:102120008FF8042200230121D6E78022194B5200A8
:102130001A621949802292000B681342FCD000F009
:102140007FF8082200230221C6E700220023002195
:10215000C2E70E481749FFF7D1FB70E701220124BF
:10216000012377E709481449FFF7C8FB67E70748E9
:102170001249FFF7C3FB62E7064A0B43906A104916
:102180000840034393625AE7C83D00002C3E00001C
:10219000F03D000000800C402C800C4000000C4002
:1021A000711B0000FFDB0BFFFF23F400F3FFEFFFC9
:1021B00040800C40DD090000650A0000E2090000D3
:1021C000FCFFFEFF10B504282AD8184B80001B58CE
:1021D0009F4603240823042000290CD0144B1862C6
:1021E000002A05D00121134AA14013680B42FCD0FC
:1021F00000F026F810BD0E4A1362F9E70724802389
:102200004020E9E7012402230120E5E705242023FB
:102210001020E1E78023802009249B004000DBE7B9
:1022200005480649FFF76AFBE4E7C046183E000090
:1022300000800C402C800C402C3E0000C50D00009E
:10224000024BDA6A024B1A607047C04600800C40AD
:10225000C8010020F0B5474680B4041C0D1C161CB4
:10226000984600284BD0012800D1A6E0022800D1D2
:10227000CDE0032800D1C8E0042800D1C9E03F2305
:1022800005283DD0872174484900FFF737FBE70058
:10229000002E3BD13B199B00072D4FD86F4A0F21D1
:1022A0009B185868AA0091408843311C9140021C39
:1022B0000A435A60002E1FD14246002A5FD1002CEB
:1022C00000D16EE0012C00D1A5E0022C00D1AAE0E3
:1022D000032C00D1AFE0042C00D1B4E03F23052C47
:1022E00060D05F485F49FFF709FB3C195E4A012354
:1022F000A400AB40A418636004BC9046F0BD5B4BE7
:102300002B41D907BED5E700002EC3D04246002A94
:1023100023D0002C60D0012C00D186E0022C00D10B
:102320008DE0032C79D0042C00D18EE03F23052CC6
:1023300053D04B484E49FFF7E1FA51E047495B184B
:102340004C4998686A1892000F2191408843311CCB
:102350009140021C0A439A60ACE7002C2FD0012C5C
:1023600065D0022C69D0032C59D0042C6FD03F23A8
:10237000052C25D03A483B49FFF7C0FA23E0002C52
:1023800037D0012C55D0022C5BD0032C49D0042C23
:102390005FD03F23052C2DD031483549FFF7AEFAE9
:1023A0002BE0324B2B41D9079BD53C192E4A0123F8
:1023B000A400AB40A41863609EE72F4BA0E72B4B13
:1023C0002B41DA07D6D5E7003B19274901229B00AC
:1023D000AA405B185A605DE7244B2B41D907A8D56A
:1023E000E7003B191D4901229B00AA405B181A61B6
:1023F00050E71E4B2B41D907CED53C19174A012374
:10240000A400AB40A418236176E71C4B78E71C4B73
:1024100076E71C4B74E7184BC4E7184BDDE7174B06
:10242000CEE7164BE6E7164BBCE7134BD5E7124B4E
:10243000C6E7114BDEE7114BB4E7114BC0E7104B79
:10244000CBE70F4BD6E70F4BACE70E4BC5E70D4B79
:10245000B6E70C4BCEE7C046AC3E00000060004043
:1024600094390000C6020000106000407FF70000B1
:10247000F3020000F8FFFF3FF8790000FF010000C1
:10248000FFFF0000F0FF0000F8B5304B041C0D1CEE
:10249000984204D0E8212E484900FFF72FFA236C18
:1024A000DA0703D40222636C1A42FCD10A23636068
:1024B000636C002BFCD10123236423682A7B1C213D
:1024C0008B4313436A7BAF681343AA7B6E68134345
:1024D0002360002F28D0002E0CD11C4B9C4205D02D
:1024E0009C211B484900FFF709FA13E01948FFF740
:1024F00053FC061C7001391C00F0C0F9164B061C79
:10250000203EF6009E4215D8134B1E40236CDA077E
:1025100005D5E6602B78636000232364F8BD0422B0
:10252000636C1A42FCD1F4E7862109484900FFF7A1
:10253000E5F9D0E746210648FF31FFF7DFF9064B02
:102540001E40236CDA07E4D4E9E7C04600400840A7
:10255000C03E000070071400F87F000070B5041C36
:102560000D1C161C032803D908487721FFF7C6F96C
:1025700007231E4080235B051E43FC239B031D4055
:102580000434034B3543A400E55070BDD83E000031
:1025900000C00C4038B5041C0D1C01280AD909489C
:1025A000AA21FFF7ABF9002C08D0012C01D1064B72
:1025B0001D6038BD0B0EF2D1002CF6D1034B1D600F
:1025C000F7E7C046EC3E00000C0008400800084059
:1025D000034B01211A688A43104318607047C046B4
:1025E00000000840002802D1034B18627047024BDC
:1025F00001221A62FAE7C0460000084042780378D8
:10260000002A01D0022213438278002A01D004223A
:102610001343014A1360704700000840044B012235
:10262000196891431960196891430A431A60704709
:1026300000000840F8B53B4B041C0D1C984256D0D6
:10264000394E3A49301CFFF759F9301C3849FFF729
:1026500055F9384B384AE360002323606260374AFB
:10266000A3606361E364A2646365A3652A8A0123AE
:102670001343AA7B2168501E824192020B431343ED
:1026800023602B7D2268591E8B415B071343236017
:10269000AB7C002B03D0EA7C10231343A3652A7B79
:1026A00080235B01AE68134363606F68002E33D0F4
:1026B000002F2CD0701E7F00311CC01900F0DEF8F6
:1026C0008601403E730D03D017481D49FFF716F9E8
:1026D0001C4B62691E401C4B13401E4366616B7BA2
:1026E000002B01D01023E3602B78E360F8BD114B81
:1026F000114AC360002303604260104A8360436153
:10270000C3648264436503658365C365AEE70F48B0
:10271000FFF742FB071CCDE7EC210348FF31FFF731
:10272000EDF8C5E700C40040003F00009D02000036
:1027300077030000AA0E000005100000F91F00003A
:102740001102000000FF1F003F00E0FF4081040075
:10275000402203691A42FCD041637047402203695A
:102760001A42FCD0C1637047024B1A6801321A60EA
:102770007047C0466C030020F8B54F464646C0B4CB
:1027800004210120FFF746FC0020FDF73FFDFDF787
:1027900045FD3248FFF700FBFA21890000F06EF892
:1027A0002F4B0138984200D9FEE72E4B2E4A586035
:1027B000106AC0210002000A0906014311620022CA
:1027C0009A6007221A60FDF79BFE284800F05AFA2B
:1027D000FEF7B6F9002800D0FEE7254C254B22680D
:1027E0002168891A9942FBD9234B0025012700262D
:1027F000A8469946002F19D00136092D29DC122E42
:1028000017DC002E00D101270135642D15D0434679
:10281000002B18D00020FDF71DFD002398462268EC
:1028200023689B1A632BFBD9002FE5D1013E122EA2
:10283000E7DD01350027642DE9D143460127002655
:102840000025002BE6D10F20FDF704FD012398465B
:10285000E5E7484600F016FAD1E7C046500002000E
:10286000FFFFFF0010E000E000ED00E0143F00007B
:102870006C030020CF0700002C3F0000002934D05B
:102880000123002210B488422CD301242407A14242
:1028900004D2814202D209011B01F8E7E400A142FF
:1028A00004D2814202D249005B00F8E7884201D39A
:1028B000401A1A434C08A04202D3001B5C08224372
:1028C0008C08A04202D3001B9C082243CC08A042E3
:1028D00002D3001BDC082243002803D01B0901D0CF
:1028E0000909E3E7101C10BC7047002801D0002044
:1028F000C04307B4024802A14018029003BDC0467D
:10290000190000000029F0D003B5FFF7B9FF0EBC95
:102910004243891A1847C0467047C0461C2101230C
:102920001B04984201D3000C10391B0A984201D3B2
:10293000000A08391B09984201D30009043902A290
:10294000105C40187047C0460403020201010101F7
:102950000000000000000000084B10B5041C002B14
:1029600002D0002100E000BF054B1868836A002BED
:1029700000D09847201CFEF787F8C04600000000F2
:1029800098400000134B70B51D68041C1E1C002DE0
:1029900005D0AA69002A02D1281C00F077F80E4B56
:1029A0009C4201D16C6808E00C4B9C4201D1AC68A0
:1029B00003E00B4B9C4200D1EC680C22A35E002B81
:1029C00002D00E23E05E04E03368092201201A6081
:1029D000404270BD7C0000203440000054400000A4
:1029E00074400000F8B5041C071C4834002C12D0B9
:1029F000A5686668013E0CD4AB89012B07D90E226D
:102A0000AB5E013303D0381C291C00F089FE683509
:102A1000F0E72468EAE7F8BD002310B5041C036062
:102A20004360836081814366C28103614361836146
:102A3000191C08225C3000F0C8F8054B2462636260
:102A4000044BA362044BE362044B236310BDC046F6
:102A5000E92D0000112E0000492E0000752E000007
:102A600070B54B1E68255D430E1C291C743100F0A7
:102A7000B5F8041E08D00021016046602A1C0C3005
:102A8000A060683200F0A1F8201C70BD836913B506
:102A9000041C002B27D18364C3640365124B134AC3
:102AA0001B688262984201D101238361201C00F0DF
:102AB0001FF86060201C00F01BF8A060201C00F0D4
:102AC00017F80421E06000226068FFF7A5FFA06806
:102AD00009210122FFF7A0FFE06812210222FFF77F
:102AE0009BFF0123A36113BD98400000E52900006E
:102AF000F8B51D4B071C1E68B269002A02D1301CB4
:102B0000FFF7C4FF4836B4687368013B05D40C2254
:102B1000A55E002D10D06834F7E73368002B06D18E
:102B2000381C0421FFF79CFF3060002801D0366874
:102B3000E9E70C233B6016E001235B42E381201CA4
:102B40000123A38165662560A560656025616561D7
:102B5000A5615C30291C082200F037F86563A56385
:102B6000A564E564201CF8BD9840000070B50E4BCC
:102B70000E4D0024ED1AAD101E1CAC4204D0A30073
:102B8000F35898470134F8E700F0F0FE084B094D80
:102B90000024ED1AAD101E1CAC4204D0A300F35863
:102BA00098470134F8E770BD8000002080000020C5
:102BB000800000208400002010B50023934203D041
:102BC000CC5CC4540133F9E710BD031C8218934256
:102BD00002D019700133FAE77047000070B5032383
:102BE000CD1C9D430835061C0C2D01D20C2501E09F
:102BF000002D3FDB8D423DD3204B1C681A1C211C4D
:102C0000002913D00868431B0DD40B2B02D90B608D
:102C1000CC181EE08C4202D1636813601AE0486849
:102C200060600C1C16E00C1C4968E9E7144C206835
:102C3000002803D1301C00F03FF82060301C291C14
:102C400000F03AF8431C15D0C41C03239C43844273
:102C50000AD12560201C0B300722231D9043C31A84
:102C60000BD05A42E25008E0211A301C00F024F840
:102C70000130EED10C233360002070BDD401002060
:102C8000D00100200FB40B4B13B51C68002C05D0ED
:102C9000A369002B02D1201CFFF7F8FE05ABA16849
:102CA000201C049A019300F02FF916BC08BC04B054
:102CB0001847C0467C00002038B5074C0023051C8F
:102CC000081C2360FDF704FF431C03D12368002B7D
:102CD00000D02B6038BDC04670030020F7B51E1C25
:102CE0003C4B041C1D680F1C0192002D05D0AA69E5
:102CF000002A02D1281CFFF7C9FE374B9C4201D1A4
:102D00006C6808E0354B9C4201D1AC6803E0344B61
:102D10009C4200D1EC68019B022B57D8002E55DB5A
:102D2000281C211C00F0FCFC00236360A361A38924
:102D30001A0603D5281C216900F098FDA389832277
:102D40009343A381019B022B13D0002F25D1002E8A
:102D500001D18026F600301C00F072FD071E18D14C
:102D60008020C00000F06CFD071E10D10120404201
:102D700000E00020A38902221343A3810023A36063
:102D8000231C4733236023610123636120E08026F5
:102D9000F600A38980221343A381019A012A04D15A
:102DA000A3891343A3817342A3610E4B0020AB623E
:102DB000A3892760276166611A0709D5032213409A
:102DC0005A4253415B421E40A66001E0012040424E
:102DD000FEBDC0467C00002034400000544000008E
:102DE00074400000E529000038B50C1C0E25495F31
:102DF00000F084FD002803DB626D1318636503E0B7
:102E0000A289024B1340A38138BDC046FFEFFFFFEC
:102E1000F8B51E1C8B89051C0C1C171CDA0505D582
:102E20000E23C95E0022022300F0A6FCA289054BF6
:102E3000281C1340A3810E22A15E331C3A1C00F013
:102E40004DFBF8BDFFEFFFFF38B50C1C0E25495FA9
:102E500000F092FCA389421C03D1054A1340A381D0
:102E600004E0802252011343A381606538BDC0464F
:102E7000FFEFFFFF08B50E23C95E00F0B5FB08BDEC
:102E80000023C25C0133002AFBD1581E7047031C8B
:102E9000002010B582420FD01C780878A04201D1E2
:102EA000012A03D118780B78C01A05E0013A0028EE
:102EB000F8D001330131EFE710BD936810B5013B45
:102EC0009360002B05DA9469A34208DBCBB20A2B8E
:102ED00005D01368581C10601970C8B201E000F0EA
:102EE000A5FA10BDF8B5061C0F1C141CD518AC4271
:102EF00008D02178301C3A1CFFF7DFFF0134431C57
:102F0000F5D100E00020F8BDF0B59FB0061C0F1C05
:102F100003920593002804D08169002901D1FFF7AD
:102F2000B5FD754B9F4201D1776808E0734B9F4216
:102F300001D1B76803E0724B9F4200D1F768BB89AB
:102F40001A070AD53B69002B07D006AD00236B6139
:102F500020236B763023AB763BE0301C391C00F02D
:102F6000D1FA0028F1D001204042C2E0059A111D9B
:102F700012680591002A76DB0992013423782E2B02
:102F800000D181E021785F48032200F063FC002833
:102F900007D05C492A68431A4020984010432860B3
:102FA00001342178631C584806220393297600F0E7
:102FB00051FC002800D18AE0544B002B7ED1059BA8
:102FC000072207339343083305936A69049953181A
:102FD0006B61039C2378002B04D10399611A029141
:102FE00010D003E0252BF8D00134F3E7301C391C56
:102FF000039A029BFFF776FF013075D06A69029948
:1030000053186B612378002B6ED0012252426A6004
:103010006A4600235B3201342B60EB60AB601370B7
:10302000AB6521783A48052200F014FC002808D04E
:10303000374A0134831A012098402B6818432860CE
:10304000EFE72B68D90603D56A4620215B32117061
:103050001A0703D56A462B215B32117022782A2A7F
:1030600084D0099B05E05242EA60022213432B60A0
:1030700083E72278303A092A04D80A214B430134E5
:103080009B18F6E7099379E763782A2B09D1059B0A
:1030900002341A1D1B680592002B0DDA01235B42D6
:1030A0000AE0013400232278303A092A04D80A21A0
:1030B0004B4301349B18F6E7079363E705AB009396
:1030C000301C291C3A1C134B00E000BF07E005AB85
:1030D0000093301C291C3A1C0E4B00F091F8049010
:1030E0000499013100D070E7BB895A0600D53AE750
:1030F0000B981FB0F0BDC0463440000054400000A3
:1031000074400000A2400000A64000000000000043
:103110009C400000E52E0000F7B5151C01930A69DC
:103120008B68061C0C1C934200DA131C221C2B60BB
:1031300043321278002A01D001332B6020688006C8
:1031400002D52B6802332B60216806270F401FD061
:10315000231C43331B785A1E9341226892061FD5C5
:10316000E11840313020C870211C5A1C45310978C3
:10317000A21840320233D17012E0221C301C019997
:1031800019320123089FB847013011D0009F013741
:103190000097E0682968009F431A9F42EDDBD7E75C
:1031A000221C301C01994332089FB847013002D1DC
:1031B0000120404223E0206806212B68E26801409C
:1031C0000025042903D1D51AEB43DB171D40A26863
:1031D00023699A4201DDD31AED1800270097009F5A
:1031E000AF420BDA221C301C01991A320123089FCE
:1031F000B8470130DCD0009F0137EFE70020FEBD6B
:10320000F0B58BB007930D1C0B7E433506920590ED
:103210000C1C109A04956E2B00D1A7E011D8632BDB
:1032200022D009D8002B00D1B0E0582B00D0C0E04C
:1032300045310B707B4D4EE0642B1CD0692B1AD0AE
:10324000B7E0732B00D1A5E009D86F2B29D0702BE4
:1032500000D0AEE00E68202333430B6036E0752BC0
:103260001FD0782B32D0A4E013680D1C191D4235F5
:1032700011601B689FE0216813680E0603D5191DB5
:1032800011601E6805E04806F9D5191D116000217E
:103290005E5E644B002E3BDA049D2D2276422A703E
:1032A00036E0216813680E0603D5191D11601E68EB
:1032B00004E04806F9D5191D1E881160594B227E7D
:1032C000039308276F2A1ED00A271CE0231C7821AD
:1032D0004533554D197011682368081D039510601A
:1032E0001E0601D50E6802E05806FBD50E88D907E8
:1032F00002D52022134323601027002E03D1226819
:1033000020239A432260231C002243331A7001E0D9
:1033100003930A276368A360002B03DB256804225C
:1033200095432560002E02D1049D002B0ED0049DF4
:10333000301C391CFFF7E6FA0398013D435C301C52
:103340002B70391CFFF79AFA061EF1D1082F09D10C
:103350002168C90706D5626823699A4202DC013DEB
:1033600030232B70049E731B23612AE008681368C6
:103370004969050604D5181D10601B68196005E031
:103380004606F8D5181D10601B68198000232361BC
:10339000049D16E01368191D11601D68281CFFF7B5
:1033A0006FFD63682061984200D9236120696060E5
:1033B00004E0251C42352B7001232361049E002369
:1033C0003370079E05980096211C09AA069BFFF7FB
:1033D000A3FE013002D10120404221E02A1C0598C1
:1033E00006992369079DA8470130F4D02668B607DF
:1033F00005D4099BE068984212DA181C10E00025F9
:10340000E0680999431A9D42F3DA221C059806994F
:1034100019320123079EB0470130DCD00135EFE7B8
:103420000BB0F0BDAD400000BE40000070B5051C03
:103430000E1C141C002804D08269002A01D1FFF759
:1034400025FB234B9C4201D16C6808E0214B9C4238
:1034500001D1AC6803E0204B9C4200D1EC68A36929
:10346000A360A3891A070AD52369002B07D0226815
:103470002369F6B2D01A626990420FDB08E0281C7B
:10348000211C00F03FF80028F1D0012040421DE04F
:10349000281C211C00F044F90028F6D1A368013053
:1034A000013BA36023685A1C22601E706369984226
:1034B00005D0A389301CDA0708D50A2E06D1281CAE
:1034C000211C00F02DF90028DFD1301C70BDC04652
:1034D00034400000544000007440000038B5084CEF
:1034E000051C00202060081C111C1A1CFDF71AFB8B
:1034F000431C03D12368002B00D02B6038BDC0468D
:1035000070030020344B70B51D68061C0C1C002D88
:1035100005D0A969002902D1281CFFF7B7FA2F4B63
:103520009C4201D16C6808E02D4B9C4201D1AC68F3
:1035300003E02C4B9C4200D1EC68A28993B219079E
:1035400021D4D90605D40923336040231A43A2812C
:103550003FE05A0713D5616B002908D0231C443380
:10356000994202D0301C00F081F900236363A389E3
:1035700024229343A3810023636023692360A389EA
:1035800008221343A381216900290BD1A389A0221A
:1035900092001A4080239B009A4203D0301C211CC9
:1035A00000F0FEF8A38901221A4005D061690022CB
:1035B000A2604A42A26103E0990700D46269A26056
:1035C00022690020824206D1190604D54022134305
:1035D000A3810120404270BD7C00002034400000E7
:1035E000544000007440000038B5074C0023051C0F
:1035F000081C2360FDF746FA431C03D12368002B07
:1036000000D02B6038BDC04670030020F7B58B8911
:10361000051C0C1C19075ED46268002A02DC276CAA
:10362000002F1ADDE76A002F17D000222E682A60CB
:10363000802252011A4001D0626D15E0281C216AD7
:103640000123B847021C411C0ED12B68002B0BD064
:103650001D2B01D0162B02D12E6000205EE0A38925
:1036600040210B43A38159E0A3895F0706D5616818
:10367000636B521A002B01D0276CD21B281C216AC5
:103680000023E76AB847A289411C06D12B68002BAA
:1036900003D01D2B01D0162B19D1002363602369A1
:1036A0002360D70405D5411C02D12A68002A00D125
:1036B0006065616B2E600029CFD0231C4433994292
:1036C00002D0281C00F0D2F80020606326E04023DE
:1036D0001A43A28122E02669002EBED0276800226C
:1036E000BF1B01972660990700D16269A260019F04
:1036F000002FB2DD281C216A321C019BA76AB84743
:10370000002806DCA389402213430120A381404204
:1037100004E0019F36183F1A0197E8E7FEBD00005C
:103720000A6938B5051C0C1C002A01D100201CE0D8
:10373000002804D08369002B01D1FFF7A7F90B4BB8
:103740009C4201D16C6808E0094B9C4201D1AC68F5
:1037500003E0084B9C4200D1EC680C22A35E002BD6
:10376000E4D0281C211CFFF751FF38BD3440000075
:10377000544000007440000038B5084C051C00207F
:103780002060081C111C1A1CFDF788F9431C03D18A
:103790002368002B00D02B6038BDC046700300208A
:1037A000F0B58B8991B0051C0C1C9A0725D40E230B
:1037B000C95E002906DAA78980231F400FD00027A1
:1037C00040260EE001AA00F0ADF80028F3DB029BD2
:1037D000F0273F02184A1F40BF187B425F418026F6
:1037E000F600281C311CFFF7F9F900280CD1A38939
:1037F0009A051FD402221343A381231C473323605D
:1038000023610123636115E00C4B8022AB62A38925
:1038100020601343A38120616661002F0AD00E232C
:10382000E15E281C00F090F8002803D0A389012253
:103830001343A38111B0F0BD00E0FFFFE5290000B4
:1038400008B5034B011C1868FFF7C8F908BDC0464E
:103850007C000020C9B28218904204D003788B42C9
:1038600002D00130F8E700207047000030B5002991
:1038700040D004390B68002B00DAC9181E4A1368BF
:10388000141C002B02D14B60116033E099420FD21F
:1038900008680A189A4205D113685268C01808606F
:1038A0004A6000E04B60216024E08A4203D8131C88
:1038B0005A68002AF9D11D685C198C420BD109683D
:1038C000691858181960904214D11468526809197F
:1038D00019605A600EE08C4202D90C23036009E0A3
:1038E00008680C18944203D11468526800190860E3
:1038F0004A60596030BDC046D401002038B5084C3C
:10390000051C00202060081C111C1A1CFDF7C8F8BB
:10391000431C03D12368002B00D02B6038BDC04668
:103920007003002038B5074C0023051C081C111C2F
:103930002360FDF7ABF8431C03D12368002B00D0B4
:103940002B6038BD7003002038B5074C0023051CE0
:10395000081C2360FDF7A0F8431C03D12368002B4B
:1039600000D02B6038BDC04670030020F8B5C046BB
:10397000F8BC08BC9E467047F8B5C046F8BC08BC09
:103980009E467047050000000000000080250000F2
:10399000000000002F686F6D652F6E696B612F53FB
:1039A0006F6674776172652F53696D706C696369B6
:1039B000747953747564696F342F53696D706C69D1
:1039C0006369747953747564696F5F76342F6465C5
:1039D00076656C6F7065722F73646B732F65787882
:1039E00033322F76342E342E312F2F656D6C696271
:1039F0002F696E632F656D5F6770696F2E680000B9
:103A0000020000000A000000020000000B0000009D
:103A10005368617270204C53303133423744483020
:103A200033202331000000000500000000000000EA
:103A300040420F00050100000000000000000000EF
:103A4000010001004865617020616E64207374613B
:103A5000636B20636F6C6C6973696F6E0A000000A2
:103A60001B5B48001B4800001B4100001B4200007C
:103A70001B4300001B44000000040A0A040306065E
:103A800008020000000000000E040E1F081F0C1F9B
:103A90000E0E00001000010E0E0E0F0E071F1F0E5F
:103AA000110E1C110111110E0F0E0F1E1F111111FD
:103AB00011111F0E000E04000200010010000C0086
:103AC00001040801060000000000000002000000E0
:103AD0000000000C040600000000000000040A0AB8
:103AE0001E13090404040404000000001106110858
:103AF0000C0102101111060608000211101111111B
:103B00000901011111040809011B11111111110101
:103B1000041111111111100200080A000400010023
:103B20001000121E0100000104000000000000004F
:103B30000200000000000002040802000000000073
:103B400000040A1F01080502020815040000001005
:103B5000190410040A0F010811110606041F0410AD
:103B600010111101110101011104080501151311B2
:103B700011111101041111110A110802010811009B
:103B8000080E0D0E160E02110D060C09040B0D0E7B
:103B90000F160D0E0711111111111F020408150047
:103BA000000000000004000A0E04020002080E1FBC
:103BB000001F00081504080809100F040E1E00005D
:103BC0000200080816110F01110F0F1D1F04080332
:103BD000011515110F110F0E04111115040A04021D
:103BE0000208000000101301191107111304080541
:103BF0000415131111191301021111110A110801F1
:103C000004100800000000000000001F1002150052
:103C10000208150406000004130404101F1011020A
:103C200011100606041F0404151F110111010111D2
:103C300011040805011119110115051004111115C0
:103C40000A04020204080000001E1101111F021ED6
:103C500011040803041511110F1E010E0211111594
:103C6000041E040204080000000000000000000A16
:103C70000F190900040404040400060211040211CF
:103C80000811110211080604080002001511111193
:103C9000090101111104090901111111010909108A
:103CA00004110A1511040102080800000011111185
:103CB0001101021011040905041111110110011064
:103CC00012190A150A100202040800000000000080
:103CD0000004000A04181600080200000200060191
:103CE0000E0E1F0E080E0E020E060002100001043A
:103CF0000E110F0E071F010E110E06111F11110ECE
:103D00000116110F040E040A11041F0E100E001FDD
:103D1000001E0F0E1E0E020E110E06090E11110EC0
:103D20000110010F0C16040A110E1F0C04060000EE
:103D30000000000000000000000000000000000083
:103D40000000000000000000000000000000000073
:103D50000000000000000000000000000000000063
:103D60000000000000000000000000000000000053
:103D70000000000000000000000000000000000043
:103D80000000000000000000000000000000000033
:103D9000000000000000000001000100681D00009C
:103DA0004E1D0000561D00005E1D0000681D000035
:103DB000681D0000621D00001E1D0000681D00003F
:103DC000681D00005A1D0000642100004A21000007
:103DD0002A2100000E21000064210000642100005F
:103DE000FC2000006421000064210000CE200000BF
:103DF0006E2100006E210000EA200000F420000087
:103E00004E2000005C2100006E2100006E210000A9
:103E10006E2100005221000014220000FC2100004D
:103E2000D2210000042200000C2200002E2E2F655B
:103E30006D6C69622F656D5F636D752E63000000A8
:103E40002F686F6D652F6E696B612F536F66747786
:103E50006172652F53696D706C696369747953740D
:103E60007564696F342F53696D706C696369747917
:103E700053747564696F5F76342F646576656C6F13
:103E80007065722F73646B732F65787833322F7679
:103E9000342E342E312F2F656D6C69622F696E635D
:103EA0002F656D5F636D752E680000002E2E2F65E7
:103EB0006D6C69622F656D5F6770696F2E630000BE
:103EC0002E2E2F656D6C69622F656D5F6C65756157
:103ED00072742E63000000002E2E2F656D6C6962D7
:103EE0002F656D5F7072732E630000002E2E2F659C
:103EF0006D6C69622F656D5F7274632E63000000E4
:103F00002E2E2F656D6C69622F656D5F7573617202
:103F1000742E630054686520526F6F6D2054657075
:103F2000657261747572653A202000001B440000C0
:103F30000020202020202020202028282828282079
:103F40002020202020202020202020202020202071
:103F500020881010101010101010101010101010D9
:103F600010040404040404040404041010101010C9
:103F70001010414141414141010101010101010193
:103F800001010101010101010101010110101010E5
:103F90001010424242424242020202020202020265
:103FA00002020202020202020202020210101010B9
:103FB00020000000000000000000000000000000E1
:103FC00000000000000000000000000000000000F1
:103FD00000000000000000000000000000000000E1
:103FE00000000000000000000000000000000000D1
:103FF00000000000000000000000000000000000C1
:1040000000000000000000000000000000000000B0
:1040100000000000000000000000000000000000A0
:104020000000000000000000000000000000000090
:104030000000000000000000000000000000000080
:104040000000000000000000000000000000000070
:104050000000000000000000000000000000000060
:104060000000000000000000000000000000000050
:104070000000000000000000000000000000000040
:104080000000000000000000000000000000000030
:1040900000000000430000001C000020232D302BF6
:1040A0002000686C4C006566674546470030313239
:1040B0003334353637383941424344454600303190
:1040C00032333435363738396162636465660000EF
:0440D00000000000EC
:0840D40018C0FF7F010000008D
:1040DC000080000000366E01F506000000000000B4
:1040EC00E400002000100000303F00000000000041
:1040FC0034400000544000007440000000000000F8
:10410C0000000000000000000000000094400000CF
:10411C000000000000000000000000000000000093
:10412C000000000000000000000000000000000083
:10413C000000000000000000000000000000000073
:10414C000000000000000000000000001C00002027
:0C415C00B50000008D0000000000000015
:040000030000035D99
:00000001FF
