:1000000000100020E50400001105000011050000AB
:100010001105000011050000110500001105000088
:100020001105000011050000110500001105000078
:100030001105000011050000110500001935000030
:100040001105000011050000110500001105000058
:100050001105000011050000110500001105000048
:100060001105000011050000110500001105000038
:100070001105000011050000110500001105000028
:1000800011050000110500001105000010B5064C17
:100090002378002B07D1054B002B02D0044800E049
:1000A00000BF0123237010BD9C0000200000000051
:1000B000DC4F000008B5084B002B03D00748084967
:1000C00000E000BF07480368002B03D0064B002B5D
:1000D00000D0984708BDC04600000000DC4F00007B
:1000E000A00000209800002000000000164B002B0C
:1000F00000D1144B9D46402292029A1A924600214A
:100100008B460F461348144A121A03F06CFC0F4B2F
:10011000002B00D098470E4B002B00D098470020B2
:10012000002104000D000D48002802D00C4800E01A
:1001300000BF03F029FC2000290003F00DFA03F0B2
:1001400019FBC0460000080000100020000000005D
:10015000000000009C000020880300200000000038
:100160000000000090B585B000AF3B1C1A4A13CACE
:1001700013C312681A60194B00221A60184B002230
:100180001A60184B181C012102F0D0F9164B181CEC
:10019000012102F0CBF9154B181C012102F0C6F920
:1001A000134B181C012102F0C1F9124B181C062137
:1001B00002F066FB3B1CE12252029A600E4A3B1C95
:1001C000101C191C02F0BEFE012000F017F80023DD
:1001D000181CBD4605B090BDA0470000B800002027
:1001E000BC0000204081040000720400700714006D
:1001F0000023020003001A000040084080B582B0CE
:1002000000AF021CFB1D1A70FB1D1B78002B18D0C1
:10021000032004210422012302F030FD03200521E4
:100220000122012302F02AFD0020092104220123DA
:1002300002F024FD104B104A526D03210A435A6507
:1002400017E0002009210022002302F017FD0A4BCD
:10025000094A526D03218A435A6503200421002272
:10026000002302F00BFD032005210022002302F0F1
:1002700005FDBD4602B080BD0040084080B582B09B
:1002800000AF78607A680423134001D0FFF76AFF5B
:100290000023181CBD4602B080BDC04690B583B097
:1002A00000AF021C3960FB1D1A70FB1D1B78002B70
:1002B0001FD0FB1D1B78012B19D0FB1D1B78022BB7
:1002C00013D0FB1D1B78032B0DD0FB1D1B78042BBB
:1002D00007D0FB1D1B78052B01D13F230AE000232B
:1002E00008E0144B06E0144B04E0144B02E0144BFE
:1002F00000E0144B3A68191C11410A1C01231340F9
:1003000005D1114A114B101C191C01F0D9FD1048E0
:10031000FB1D1A783B6801210C1C9C40231C191CF6
:10032000131CDB009B189B00C31810335960BD469B
:1003300003B090BDF0FF0000FF010000FFFF0000D0
:10034000F87900007FF70000B0470000C602000007
:100350000060004090B583B000AF021C3960FB1D07
:100360001A70FB1D1B78002B1FD0FB1D1B78012B67
:1003700019D0FB1D1B78022B13D0FB1D1B78032B00
:100380000DD0FB1D1B78042B07D0FB1D1B78052B04
:1003900001D13F230AE0002308E0144B06E0144B90
:1003A00004E0144B02E0144B00E0144B3A68191CB3
:1003B00011410A1C0123134005D1114A114B101C95
:1003C000191C01F07DFD1048FB1D1A783B680121C6
:1003D0000C1C9C40231C191C131CDB009B189B004D
:1003E000C31810331960BD4603B090BDF0FF000084
:1003F000FF010000FFFF0000F87900007FF7000018
:10040000B0470000F30200000060004080B582B0F9
:1004100000AF144B181C012102F088F8124B181C75
:10042000012102F083F800237B6012E00F4B7A6811
:10043000D200D25C0D497B68DB00CB1804331B680B
:10044000101C191C0422002302F018FC7B680133E5
:100450007B607B68012BE9DD0023181CBD4602B0E0
:1004600080BDC04640810400007204001C480000AA
:1004700080B584B000AF78600023FB600123BB60CF
:1004800026E07B68BA6813400ED0154BFA68D2009C
:10049000D25C1349FB68DB00CB1804331B68101CCB
:1004A000191CFFF757FF0DE00D4BFA68D200D25C24
:1004B0000B49FB68DB00CB1804331B68101C191CAC
:1004C000FFF7ECFEFB680133FB60BB685B00BB60C1
:1004D000FB68012BD5DD0023181CBD4604B080BD90
:1004E0001C480000064880470649074A074B9B1AEC
:1004F00003DD043BC858D050FBDCFFF7F7FD0000DC
:100500002D060000E84F0000000000209C000020A5
:10051000FEE7C04680B582B000AF00F021F8031CB2
:100520007B60094B5B681A1C0F2313407A68111C0F
:10053000D9400B1C7B60054B7A681A607B68181CDD
:10054000BD4602B080BDC04600800C40EC010020DA
:1005500080B500AF014B181CBD4680BD00366E0152
:1005600080B582B000AF294BDA6AF0239B011340BB
:100570008022520193420CD080229201934204D0F7
:1005800080221201934208D00BE0214B1B687B6054
:1005900036E080231B027B6032E01E4B1B687B60D1
:1005A0002EE01A4BDA68E023DB0013408022920031
:1005B000934218D080229200934206D8002B18D084
:1005C00080225200934211D016E0C0229200934242
:1005D00006D08022D20093420ED10F4B7B600EE0FA
:1005E0000E4B7B600BE00E4B7B6008E00D4B7B609D
:1005F00005E00D4B7B6002E000237B60C046C046F7
:100600007B68181CBD4602B080BDC04600800C400F
:100610000400002000000020406F4001809FD500B2
:10062000C0D8A70040B56400804F120080B500AF6D
:10063000BD4680BD80B500AF80231B02181CBD469F
:1006400080BDC04680B500AFFA239B00181CBD4694
:1006500080BDC04680B500AF024B1B68181CBD466C
:1006600080BDC0460400002080B582B000AF114BB1
:100670007B60114B1B7801225340DBB2002B14D05E
:100680000D4B01221A700CE07B681B689847031C15
:100690003B603B68002B01D03B6807E07B6804337C
:1006A0007B607B681B68002BEED10023181CBD46C5
:1006B00002B080BD08000020EC00002080B584B0AE
:1006C00000AF78603960114B1B7801225340DBB2D8
:1006D000002B02D00E4BFB6012E07B68002B0DDC80
:1006E0007B682C225A430B4BD3183A68101C191CF8
:1006F0002C2203F06FF90023FB6001E0064BFB6046
:10070000FB68181CBD4604B080BDC046EC0000204C
:1007100005001180C00000200200118080B584B067
:1007200000AF7860134B1B7801225340DBB2002BE3
:1007300002D0114BFB6017E0104B1B68002B11DC43
:100740000E4B1B68591C0D4A11602C225A430C4B4E
:10075000D2187B68101C191C2C2203F03BF90023D3
:10076000FB6001E0074BFB60FB68181CBD4604B052
:1007700080BDC046EC00002005001180F000002084
:10078000C00000200100118080B58CB000AF00F0E7
:10079000B7FA00F04FFA00F0CFFA02200F21002242
:1007A000002300F0DBFA032007210022002300F0E1
:1007B000D5FA04200B210022002300F0CFFA0020FC
:1007C00008210022002300F0C9FA00200A2100229B
:1007D000002300F0C3FA04200A210022002300F0C5
:1007E000BDFA04200A21402200F006FB031CFB6234
:1007F000FB6A002B01D0FB6A35E03B1C1C4A1A60E7
:100800003B1C01221A743B1C00225A743B1C8022A0
:100810005A603B1C8022DA603B1C5A683B1C9A6081
:100820003B1C144A5A613B1C134A9A613B1C134AF5
:10083000DA613B1C124A1A623B1C124A5A623B1C88
:10084000114A9A623B1C181CFFF768FF031CFB62ED
:10085000FB6A002B06D13B1C181C012100F026F876
:1008600000F046F8FB6A181CBD460CB080BDC046BF
:100870002C480000AD0800003D090000A50900005B
:10088000010A0000BD0900008D08000080B584B099
:1008900000AF78600023FB6000F032FA00F0CAF984
:1008A000FB68181CBD4604B080BDC04680B582B050
:1008B00000AF78600A1CFB1C1A70FB1C1B78002B15
:1008C00008D00020082100F06FFA00200A2100F073
:1008D0006BFA07E000200A2100F07AFA00200821D4
:1008E00000F076FA0023181CBD4602B080BDC04659
:1008F00080B582B000AF04200B2100F055FA06202D
:1009000000F00AFA0C4B1B7804221343DBB21A1CCA
:10091000BB1D1A80BB1D181C022100F0B7F9022074
:1009200000F0FAF904200B2100F052FA0023181C01
:10093000BD4602B080BDC046F400002080B586B040
:1009400000AFF860B9607A603B60BB68DB087A682A
:1009500053437B61BB68802B01D00E4B16E00E4BDE
:100960001A687B69D2180D4B9A4204D93B68002261
:100970001A600B4B0AE0084B1A683B681A60064B7A
:100980001A687B69D218044B1A600023181CBD46F4
:1009900006B080BD02001180100000207801002008
:1009A0000100118080B582B000AF78603960024BE1
:1009B000181CBD4602B080BD0400118080B586B011
:1009C00000AFF860B9607A603B60BB687B61002370
:1009D0003B610BE07B69181C0021102203F003F837
:1009E0007B6910337B613B6901333B613A693B684A
:1009F0009A42EFD30023181CBD4606B080BDC04606
:100A000080B588B000AFF860B9607A603B60BB68C1
:100A1000BB61BB6A0133BB6204200B2100F0C4F947
:100A2000062000F079F9BB6A9BB21B029BB201223F
:100A300013439AB23B1C16331A803B1C1633181C06
:100A4000022100F023F90023FB612BE0BB69181C95
:100A5000102100F01BF9BB691033BB61FB6A5A1E01
:100A6000FB699A4205D13B1C1633012252421A807F
:100A70000FE0BB6A9AB2FB699BB2D3189BB20133F9
:100A80009BB21B029BB2FF2213439AB23B1C16334C
:100A90001A803B1C1633181C022100F0F7F8FB6982
:100AA0000133FB61FA69FB6A9A42CFD3022000F05E
:100AB00033F904200B2100F08BF90023181CBD46EC
:100AC00008B080BD90B583B000AF021C3960FB1D3B
:100AD0001A70FB1D1B78002B1FD0FB1D1B78012BF0
:100AE00019D0FB1D1B78022B13D0FB1D1B78032B89
:100AF0000DD0FB1D1B78042B07D0FB1D1B78052B8D
:100B000001D13F230AE0002308E0144B06E0144B18
:100B100004E0144B02E0144B00E0144B3A68191C3B
:100B200011410A1C0123134005D1114A114B101C1D
:100B3000191C01F0C5F91048FB1D1A783B6801210A
:100B40000C1C9C40231C191C131CDB009B189B00D5
:100B5000C31810335960BD4603B090BDF0FF0000CC
:100B6000FF010000FFFF0000F87900007FF70000A0
:100B700044480000C60200000060004090B583B009
:100B800000AF021C3960FB1D1A70FB1D1B78002B87
:100B90001FD0FB1D1B78012B19D0FB1D1B78022BCE
:100BA00013D0FB1D1B78032B0DD0FB1D1B78042BD2
:100BB00007D0FB1D1B78052B01D13F230AE0002342
:100BC00008E0144B06E0144B04E0144B02E0144B15
:100BD00000E0144B3A68191C11410A1C0123134010
:100BE00005D1114A114B101C191C01F069F910486C
:100BF000FB1D1A783B6801210C1C9C40231C191C0E
:100C0000131CDB009B189B00C31810331960BD46F2
:100C100003B090BDF0FF0000FF010000FFFF0000E7
:100C2000F87900007FF7000044480000F30200005C
:100C30000060004090B589B000AF0023FB613B1D10
:100C40000D4A13CA13C313CA13C30C4B181C01213A
:100C500001F06CFC3B1D0A4A9A600A4A3B1D101CBD
:100C6000191C02F0EDFA074B074A5A65FB69181C7C
:100C7000BD4609B090BDC046B04800000032040037
:100C8000E067350000C400400A03000080B584B06E
:100C900000AF786039600023FB6021E03B68012BE6
:100CA00003D07A68012313400DD07B681B78134A68
:100CB000101C191C02F070FB3B68013B3B607B6819
:100CC00001337B600CE07B681B880C4A101C191CEC
:100CD00002F076FB3B68023B3B607B6802337B6043
:100CE0003B68002BDAD1C046044B1A69202313401D
:100CF000FAD0FB68181CBD4604B080BD00C400409B
:100D000080B582B000AF00237B6000F045FF7B68B8
:100D1000181CBD4602B080BD80B584B000AF7860BD
:100D20000023FB607B68181C01F030F8FB68181C7E
:100D3000BD4604B080BDC04680B582B000AF002380
:100D40007B60054B181C012101F0F0FB7B68181C2F
:100D5000BD4602B080BDC0460072040080B586B0BA
:100D600000AFF860B9603B60FB1D1A7000237B6127
:100D7000FB1D1B78002B0FD13B1C133304221A7070
:100D8000C046FB68D8B2B9683B1C13331A783B687D
:100D900001F074FF7B6900E0024B181CBD4606B0F1
:100DA00080BDC0460100138080B584B000AF78607C
:100DB00039600023FB607B68DAB23B68101C191CA9
:100DC000FFF7DCFEFB68181CBD4604B080BDC046C2
:100DD00080B584B000AF786039600023FB607B6829
:100DE000DAB23B68101C191CFFF76CFEFB68181C7C
:100DF000BD4604B080BDC04680B588B000AFF86085
:100E0000B9607A600023FB61A0239B03BB610123CF
:100E10007B61164B181C012101F088FBBA697B69C4
:100E20000220111C1A1C02F0D7F8114B104A9168CD
:100E3000104A0A40802189000A439A600C4B0C4AF0
:100E4000926804210A439A60FB68DAB2BB68101CFE
:100E5000191C0422002301F011FF7B68181C00F00C
:100E60001FF8FB69181CBD4608B080BD0042040095
:100E700000C00C40FFF8FFFF80B582B000AF786083
:100E8000064B181C012101F051FB7B68181C09213D
:100E900001F0F6FCBD4602B080BDC0460023020052
:100EA00080B584B000AF78603A1C0C32204B111C26
:100EB0001A1C0323081C111C1A1C02F08BFD1D4B6D
:100EC000181CFFF7D9FF1C4B181C022101F05AFA1D
:100ED000194B181C012101F029FB3B1C0C3300228B
:100EE0001A703B1C0C3300225A703B1C0C3301223D
:100EF0009A703B1C0C33181C02F006F90E4B181CA0
:100F000001F06EFB031C181C796802F0C5FB031C82
:100F1000013B1B021B0A0020191C02F0A1F802F081
:100F200019F9012002F0C6F8BD4604B080BDC046E4
:100F3000C8480000020018006006100080B582B0AA
:100F400000AF78600023181CBD4602B080BDC046CB
:100F500080B582B000AF7860FEE7C04680B582B051
:100F600000AF786039603B68802292015A600023AC
:100F7000181CBD4602B080BD80B582B000AF78605D
:100F80000123181CBD4602B080BDC04680B584B0A8
:100F900000AFF860B9607A600023181CBD4604B049
:100FA00080BDC04680B586B000AFF860B9607A6099
:100FB00000237B6111E000F0B1F8031C3B613B6949
:100FC000013309D0BB685A1CBA603A69D2B21A70B0
:100FD0007B6901337B6100E004E07B685A1E7A6024
:100FE000002BE8D17B69002B02DC01235B4200E08F
:100FF0007B69181CBD4606B080BDC04690B585B063
:1010000000AF7860194B1B68002B02D1174B184AB0
:101010001A60164B1B68FB60144B1A687B68D21869
:10102000EFF308831C1C231C9A4214D9114B1B6834
:101030009B68181C02F0B4FB041C0F4B181C02F038
:101040002DFE031C0C4A201C111C1A1C00F016F863
:10105000012002F08FFB054B1A687B68D218034B06
:101060001A60FB68181CBD4605B090BD78010020D1
:10107000880300208C000020CC48000080B586B09A
:1010800000AFF860B9607A6000237B6109E0BB685B
:101090005A1CBA601B78181C00F048F87B690133B1
:1010A0007B617A697B689A42F1DB7B68181CBD46DC
:1010B00006B080BD80B58EB000AF3B1C0833002069
:1010C000191CFFF7FBFA031C7B637B6B002B1CD105
:1010D0003B1C00221A603B1C00221A713B1C01229F
:1010E0005A713A1C0B4B101C191C00F03DF8031CE4
:1010F0007B637B6B002B08D1074B1B689B68181C1C
:1011000000210222002302F0F7FC7B6B181CBD4675
:101110000EB080BD7C0100208C00002080B500AFA7
:1011200001235B42181CBD4680BDC04680B582B01D
:1011300000AF021CFB1D1A700A4B1B68002B0AD063
:10114000084B1A68FB1D1B78101C191C00F0F6F8E0
:10115000FB1D1B7801E001235B42181CBD4602B059
:1011600080BDC0467C01002090B587B000AF78609C
:10117000396000237B6100233B6116E06B493A69CB
:101180005023582042438A18D3185B7901225340D8
:10119000DBB2002B06D03B6958225A43634BD3186D
:1011A0007B6105E03B6901333B613B69002BE5DD79
:1011B0007B69002B01D15E4BB4E07B681A687B69C8
:1011C0000433101C191CFFF779FA031CBB60BB68C1
:1011D000002B01D0BB68A5E07B695B7D002B26D18D
:1011E0007B69DC697B69191D7B699A687B693C3383
:1011F000081C111C0822A047031CBB60BB68002B05
:1012000001D0BB688EE07B699C6A7B69191D7B6994
:10121000DA6B7B699B68081C111C1A1C0823A04709
:10122000031CBB60BB68002B04D0BB687AE07B6901
:101230000022DA633F4B3A691201D2587B691B697D
:10124000DB089A4201D93C4B6CE03A4A3B691B01EE
:10125000D31804331C687B699B68181C062102F0B4
:101260001BFA031C9C4201D9334B5BE0314B3A69BA
:101270001201D2587B695A632E4A3B691B01D3186D
:1012800004331A687B691A632A4A3B691B01D31825
:1012900008331A687B691A64264A3B691B01D31814
:1012A0000C331A687B695A647B681A687B691A6018
:1012B0007B6819797A693823D1547B6859797A69BE
:1012C0003923D1540023FB600FE07B695A6CFB6823
:1012D0009B00D3187A69116C7A69126BF8684243E3
:1012E0008A181A60FB680133FB607B695A6BFB68E4
:1012F0009A42EAD87A694823FF21D1547A6949236E
:10130000FF21D1547A694A23FF21D1547B69181CEB
:1013100000F08EF87A6955230121D1543B687A692F
:101320001A600023181CBD4607B090BD8001002044
:1013300005001280140000200200128080B584B0E5
:1013400000AF78600A1CFB1C1A707B68FB60FA68AF
:101350005523D35C01225340DBB2002B01D0334B29
:1013600060E0FB685B7D002B04D1FA685423012107
:10137000D15403E0FA6854230221D154FA68382387
:10138000D35C002B0FD0FB68DB6C002B17D1FB6804
:101390001A6DFB685B6B013B9A4210D1FA685423CB
:1013A0000021D1540BE0FB68DB6C002B07D1FB68FC
:1013B0001B6D002B03D1FA6854230021D154FB1C70
:1013C0001B780C2B0DD1FB68181C00F031F8FA6863
:1013D00054230021D154FB68181C00F001FB031CAE
:1013E00020E0FA683923D35C002B08D0FB1C1B7863
:1013F0000A2B04D1FB68181C0D2100F05BF9FB1CC3
:101400001B78FA68101C191C00F054F9FA68542370
:10141000D35C032B05D0FB68181C00F0E1FA031C19
:1014200000E00023181CBD4604B080BD06001280F9
:1014300080B582B000AF78607B685B6C002B15D004
:101440007B681A6C7B68596B7B681B6B4B43101C69
:1014500000211A1C02F0C7FA7B680022DA647B685C
:1014600000221A657A6854230021D154BD4602B087
:1014700080BDC04680B584B000AF78600023FB60BB
:1014800016E07B685A6CFB689B00D31819687B6870
:101490005A6CFB6801339B00D3181A687B681B6B7E
:1014A000081C111C1A1C02F095FAFB680133FB6042
:1014B0007B685B6B5A1EFB689A42E2D87B685A6C69
:1014C0007B685B6B0D495B189B00D3181A687B68BF
:1014D0001B6B101C00211A1C02F085FA7B6800228D
:1014E000DA647B685B6B5A1E7B681A657A685423E2
:1014F0000021D154BD4604B080BDC046FFFFFF3F70
:1015000080B586B000AF786039603B1C0F33002295
:101510001A703B681B2B0FD1634B181C002104224F
:1015200002F061FA3B68DAB25F4B1A707A685423B2
:101530000321D1540123B3E05B4B1B781B2B01D05B
:101540000023ADE0584B7B617B6901337B617B6994
:101550001B78002BF8D13B68DAB27B691A70524BCA
:10156000181C02F09BFB031CBB6000233B6172E074
:101570003B699A004D4BD2184B49BB68081C111CA3
:101580001A1C02F092FB031C002B61D13B1C0F3391
:1015900001221A707A6854230321D1543B699A00BE
:1015A000424BD318181C02F079FB021CBB689A420C
:1015B0004DD13B69052B3ED83B699A003C4BD31873
:1015C0001B689F467B6800221A657B680022DA64EC
:1015D00031E07B681B6D002B05D07B681B6D5A1EAC
:1015E0007B681A6527E026E07B681A6D7B685B6B79
:1015F000013B9A4205D27B681B6D5A1C7B681A65B9
:1016000019E018E07B68DA6C7B681B6B013B9A423F
:1016100005D27B68DB6C5A1C7B68DA640BE00AE05D
:101620007B68DB6C002B05D07B68DB6C5A1E7B680B
:10163000DA64FFE7C0461C4B181C0021042202F0AC
:10164000D2F97A6854230321D154012328E005E01C
:101650003B6901333B613B69052B89DD3B1C0F3343
:101660001B7801225340DBB2002B07D00E4B181C15
:101670000021042202F0B7F9002311E0BB68032B1C
:101680000BD1094B181C0021042202F0ACF97A6836
:1016900054230321D154012302E03B1C0F331B7858
:1016A000181CBD4606B080BDD8010020204C0000AB
:1016B000084C000080B582B000AF786039603B68AC
:1016C0000A2B08D00D2B02D0082B27D045E07B68D1
:1016D0000022DA6493E07B681B6D5A1C7B681A65F4
:1016E0007B680022DA647B681A6D7B685B6B9A42C8
:1016F00013D37A683823D35C002B09D07B68181C7D
:10170000FFF7B8FE7B685B6B5A1E7B681A6504E0C6
:101710007B68181CFFF78CFE71E070E07B681B7D16
:10172000002B1AD07B681B7D012B16D07A684923C9
:10173000D35CFF2B08D17A6849230021D1547A6801
:101740004A230021D1545AE07A684923FF21D15419
:101750007A684A23FF21D15451E07A683B68101C13
:10176000191CFFF7CDFE031C002B00D047E0254BD2
:101770001A683B680133D3181B781A1C972313404F
:1017800001D120233B607B68DA6C7B681B6B9A423B
:1017900007D37B680022DA647B681B6D5A1C7B6868
:1017A0001A657B681A6D7B685B6B9A4212D37A6804
:1017B0003823D35C002B09D07B68181CFFF75AFE36
:1017C0007B685B6B5A1E7B681A6503E07B68181C9C
:1017D000FFF72EFE7B685A6C7B681B6D9B00D3184D
:1017E0001A687B68DB6CD3183A68D2B2203AD2B25E
:1017F0001A707B68DB6C5A1C7B68DA64C046BD4695
:1018000002B080BD2800002090B58FB002AF786094
:1018100039607B68DB6B7B620023BB62C1E0002325
:10182000FB6275E07B685A6C3B689B00D3181A68B2
:10183000FB6AD2183B1C173312781A703B1C173303
:101840001A78BB6A64214B43D2183B1C233363498B
:101850008A5C1A707B681B7D002B08D0012B54D149
:101860003B1C23333A1C23321278D2431A70FA6A93
:10187000131C5B009B185B003B613B69FB613EE016
:101880003B1C23331A780123134016D0FB69DB106D
:101890007A6AD318FA69D210796A8A181278D1B2A2
:1018A000F869072202400120041C9440221CD2B295
:1018B0000A43D2B2D2B21A7017E0FB69DB107A6A1F
:1018C000D318FA69D210796A8A181278D2B2F869F4
:1018D000072101400120041C8C40211CC9B2C943CE
:1018E000C9B20A40D2B2D2B21A703B1C23333A1C9E
:1018F0002332127852081A70FB690133FB613B698D
:101900009A1DFB699A42BBDCC046FB6A0133FB624D
:101910007B681A6BFB6A9A4284D87B681B7D012B1B
:1019200036D1FA6A131C5B009B185B00BB61BA6975
:1019300007231340FB60FB68002B1BD0BB69DB1047
:101940007A6AD318BA69D210796A8A181278D2B230
:101950000120F968041C8C40211CC9B20139C9B2AC
:10196000C9B20A40D2B2D2B21A70BA69FB68D31AAD
:101970000833BB61BB69DB107A6AD2187B6899684F
:10198000BB69CB1ADB08101CFF211A1C02F02BF8D4
:101990007B68DB68DB087A6AD3187B62BB6A013339
:1019A000BB62BB6A072B00D839E77B685C6A7B683F
:1019B000181D7B68D96B7B681A6B131C5B009B1826
:1019C0005B003A68D2000092082201920022A047F0
:1019D000031C181CBD460DB090BDC046E848000071
:1019E00090B587B002AF78607A685423D35C012B3E
:1019F00000D167E0022B00D173E0002B00D072E031
:101A00007B685B7D002B5BD10023FB6008E07A687C
:101A1000FB68101C191CFFF7F7FEFB680133FB6025
:101A20007B685A6BFB689A42F1D87B685B6BDA0083
:101A30007B681B699A4242D27B681B7D002B02D0D7
:101A4000012B0BD015E07B68DA6B7B689B68DB08A9
:101A5000101C00211A1C01F0C6FF0CE07B68DA6B39
:101A60007B689B68DB08101CFF211A1C01F0BBFF80
:101A700001E0204B39E07B685B6BDB00FB6019E029
:101A80007B685C6A7B68191D7B68DA6B7B689B6886
:101A9000F868009001200190081C111C0022A0474A
:101AA000031CBB60BB68002B01D0BB681DE0FB685A
:101AB0000133FB607B681A69FB689A42E0D801E059
:101AC0000C4B12E07B685B7D002B08D17B681B6DA3
:101AD0007A68101C191CFFF797FE031C05E0054BE4
:101AE00003E0044B01E0C0460023181CBD4605B0CE
:101AF00090BDC0460400128080B582B000AF021CC9
:101B0000FB1D1A70064AFB1D1B78191C1F230B4076
:101B100001219940C0235B00D150BD4602B080BD79
:101B200000E100E080B500AF72B6074B1B680133DF
:101B300004D0054B1B685A1C034B1A60024B1B68F0
:101B4000181CBD4680BDC046E001002080B582B0B3
:101B500000AF0B4B1B68002B0DD0094B1B685A1EA6
:101B6000074B1A60064B1B687B607B68002B00D11B
:101B700062B67B6800E00023181CBD4602B080BD41
:101B8000E001002080B500AF024B5B68181CBD4629
:101B900080BDC0460000084090B58BB000AF3B1C34
:101BA000273300221A703B1C263300221A703B1C7C
:101BB000253300221A703B1C243300221A703B1C70
:101BC000233300221A703A1D6A4B111C1A1C03237E
:101BD000081C111C1A1C01F0FDFE0023FB610023F0
:101BE000BB6100237B6100233B61634B1A6C0423C0
:101BF000134008D1614B181C012100F097FC3B1CDD
:101C0000263301221A703C1C0F345D4B181C00F067
:101C10008DFD031C23703B1C0F331B78032B03D05B
:101C20003B1C243301221A70534BDA6A40231340C1
:101C300003D13B1C233301221A70514B181C032182
:101C400000F01EFE4F4B181C00F01EFB031CBB6077
:101C50004C4A80235B00101C191C00F093FB464B80
:101C60009A6D0123134008D1464B181C012100F046
:101C70005DFC3B1C253301221A70FFF753FF424BDA
:101C80001A68012313401BD03F4B1B68FB613E4B7E
:101C90009B68BB613C4BDB687B613B4BDB693B6119
:101CA000394B00221A60384B0022DA61364B07228A
:101CB0009A610C20FFF720FF3B1C273301221A708A
:101CC0003B1D00229A703B1D181C01F01DFA00F00C
:101CD00077F8FFF73BFF3B1C27331B78002B18D00E
:101CE000284ABB68101C191C00F04CFB012001F0B5
:101CF000F5F9254BBA699A60234B7A69DA60224B71
:101D0000FA691A60204B3A69DA61002001F0E6F9BD
:101D100002E0002001F0CEF93B1C25331B78002B9C
:101D200004D0184B181C002100F000FC3B1C24338D
:101D30001B78002B07D0124A3B1C0F331B78101C5A
:101D4000191C00F09DFD3B1C23331B78002B04D095
:101D500001200021002200F067FE3B1C26331B7887
:101D6000002B04D0054B181C002100F0DFFBBD4602
:101D70000BB090BD384C000000800C4000230200E6
:101D800002001800600610000000084080B582B014
:101D900000AF78607B680949002B0CD0013B88229A
:101DA0001202003253430A68D80AD20A504380090B
:101DB00001D00138FDD8BD4602B080BD240000200E
:101DC00080B584B000AF0823BB60334B8022520142
:101DD0001A601DE000F062F8031C7B60C04600F052
:101DE0005DF8021C7B689A42F9D000F057F8031C9A
:101DF0007B60294B1B68181C00F058F800F04EF867
:101E0000021C7B68D31A7B607B68002B00D005E046
:101E1000214B1B685B00204A1360DBD11E4B1B6803
:101E20005A081D4B1A601C4B1B68FB6026E01A4BBE
:101E30001A68FB681A43184B1A6000F02FF8031C4D
:101E40007B60C04600F02AF8021C7B689A42F9D0F9
:101E500000F024F8031C7B600F4B1B68181C00F07B
:101E600025F800F01BF8021C7B689A4206D0FB683C
:101E7000DA43094B1B681A40074B1A60BB685A1EAD
:101E8000BA60002B05D0FB685B08FB60FB68002B89
:101E9000CDD1BD4604B080BD2400002080B500AF88
:101EA000FFF770FE031C181CBD4680BD80B582B0D4
:101EB00000AF78607B68013BFDD8BD4602B080BDB5
:101EC00080B582B000AF78603960FEE780B586B03B
:101ED00000AFF860B9607A60FB681B687B61BB6823
:101EE0000122101C9840031CDB437A691A40796870
:101EF00001231940BB68081C9840031C1A43FB6867
:101F00001A60BD4606B080BD80B582B000AF786073
:101F100039607B681A683B68DA4001231340181C5B
:101F2000BD4602B080BDC04680B584B000AF7860C9
:101F30007B68002B04D07A6880231B029A4205D963
:101F4000084A094B101C191CFFF7BAFF786801F00A
:101F5000F3FB031C1F22D31AFB60FB68181CBD4651
:101F600004B080BD3C4C0000C904000080B582B0C4
:101F700000AF78607B680122111C99400B1C181C73
:101F8000BD4602B080BDC04680B500AF034BDB6CE0
:101F90001B0EDBB2181CBD4680BDC046B081E00FF1
:101FA00080B582B000AF254B5A69E023DB001340B7
:101FB0008022920093421ED080229200934206D843
:101FC000002B26D08022520093421FD027E0C0224F
:101FD0009200934204D0E022D20093421CD01EE033
:101FE000FFF7D2FF031C122B02D9154B7B6020E0B8
:101FF000144B7B601DE0FFF7C7FF031C122B02D9B7
:10200000114B7B6015E0114B7B6012E0104B7B6045
:102010000FE0104B7B600CE00F4B7B6009E00F4A38
:102020008D235B00101C191CFFF74AFF00237B6007
:10203000C0467B68181CBD4602B080BD00800C40C5
:10204000804F120040420F0040B56400C0CF6A00CC
:10205000C0D8A700809FD500406F4001A84C000069
:1020600090B583B000AFFC1C124B181C00F05EFB57
:10207000031C2370FB1C1B78072B06D0082B09D1EF
:10208000FEF76EFA031C7B600EE0FFF789FF031C6E
:102090007B6009E0084A4423FF33101C191CFFF73A
:1020A0000FFF00237B60C0467B68181CBD4603B051
:1020B00090BDC04606000C00A84C000080B584B05E
:1020C00000AF7860184BDA6B3B1C0B33511E8A4112
:1020D0001A70154B154ADA63134B5A6807231340DD
:1020E000FB607A68124B9A4206D87A68114B9A4282
:1020F00002D90123FB6001E00023FB600A4B0A4A7E
:1021000052680721101C8843011CFA680A435A6070
:102110003B1C0B331B78002B02D0034B0022DA63ED
:10212000BD4604B080BDC04600000C40711B0000DD
:102130000048E8010024F40080B500AFFEF708FA7B
:10214000031C181CFFF7BAFFBD4680BD80B584B0E4
:1021500000AF78600023BB607B683B4A93420AD0A3
:102160003A4A934207D03A4AF1235B00101C191CEB
:10217000FFF7A6FE00E0C0467B68181C00F0D6FA08
:10218000031CFB607B68304A934203D02F4A934282
:1021900006D00CE02F4B9A6A03231340FB600EE03D
:1021A0002C4B9A6A0C2313409B08FB6007E0284ADB
:1021B00083239B00101C191CFFF782FEC046FB689E
:1021C000012B05D014D3022B07D0032B0AD02DE00E
:1021D000FEF730FA031CBB6031E0FEF73BFA031C4C
:1021E000BB602CE0FEF796F9031C5B08BB6026E0A1
:1021F0000023BB607A68144B9A4203D07A68134B71
:102200009A4212D1134B9A6A79680F4B994201D1C5
:10221000102300E01423111CD9400B1C002B04D008
:10222000FEF710FA031CBB6009E008E0084A0A4BFD
:10223000101C191CFFF744FE0023BB60C046BB689E
:10224000181CBD4604B080BD0200180003001A002F
:10225000A84C000000800C403702000080B582B01E
:1022600000AF7860074B5A6D0123134000D005E0A2
:10227000C046044B1B6D7A681340FAD1BD4602B0CC
:1022800080BDC04600800C4080B584B000AF78604F
:102290007B681A090F231340BB60BB68052B14D061
:1022A00002D8042B05D050E0062B1AD0072B32D0D1
:1022B0004BE02D4B9A680F231340FB60FB68181C02
:1022C000FFF754FE031CFB6048E0274B5A680F23BE
:1022D0001340FB60FB68181CFFF748FE031CFB6003
:1022E0003CE07A68214B9A420BD11F4B9A6E0F2328
:1022F0001340FB60FB68181CFFF738FE031CFB60F3
:1023000008E01B4A1B4B101C191CFFF7D9FD0123C9
:10231000FB60C04622E07A68174B9A420BD1124B01
:102320001A6F03231340FB60FB68181CFFF71EFEA7
:10233000031CFB6008E00E4A104B101C191CFFF731
:10234000BFFD0123FB60C04608E0094A0C4B101C8E
:10235000191CFFF7B5FD0123FB60C046FB68181C84
:10236000BD4604B080BDC04600800C406006100031
:10237000A84C00009404000070071400AE04000094
:10238000B504000080B584B000AF786039607B6828
:102390001A090F231340FB60FB68052B28D002D8D5
:1023A000042B06D0A1E0062B4BD0072B00D173E005
:1023B0009BE03B68002B04D03A6880239B009A4244
:1023C00005D94F4A4F4B101C191CFFF779FD3B688C
:1023D000181CFFF7A9FD031C3B604B4B4A4A92684F
:1023E0000F21101C8843011C3A680A439A6083E05D
:1023F0003B68002B04D03A6880239B009A4205D9A1
:102400003F4A424B101C191CFFF75AFDFFF794FE80
:102410003B68181CFFF788FD031C3B603A4B3A4AA7
:1024200052680F21101C8843011C3A680A435A6005
:10243000FEF770F8031CBB60BB68181CFFF73EFE7C
:102440005AE07A68324B9A421ED13A6880231B02C6
:102450009A4205D92A4A2F4B101C191CFFF730FD50
:102460000420FFF7FBFE3B68181CFFF75DFD031C13
:102470003B60254B244A926E0F21101C8843011C9F
:102480003A680A439A6606E01D4A234B101C191C41
:10249000FFF716FDC0462FE07A68204B9A421CD108
:1024A0003B68082B05D9164A1D4B101C191CFFF759
:1024B00007FD4020FFF7D2FE3B68181CFFF734FDF4
:1024C000031C3B60104B104A126F0321101C884301
:1024D000011C3A680A431A6706E0094A114B101CAE
:1024E000191CFFF7EDFCC04606E0054A0E4B101C18
:1024F000191CFFF7E5FCC046BD4604B080BDC046D0
:10250000A84C0000F504000000800C40FD04000011
:102510006006100019050000540500007007140043
:102520005E0500007B0500008105000080B586B0D7
:1025300000AF78600A1CFB1C1A7000233B617B68AB
:102540001A0A0F2313400A2B1AD89A001C4BD318CF
:102550001B689F461B4B7B611AE01B4B7B6117E09E
:102560001A4B7B6114E01A4B7B6101233B610FE046
:10257000184B7B6110233B610AE0174B7B6107E03E
:10258000164ABD23DB00101C191CFFF799FC14E050
:102590007B681A0B1F231340FB603B69002B03D0A1
:1025A0003B69181CFFF75AFEFB1C1B787969FA6817
:1025B000081C111C1A1CFFF789FCBD4606B080BD23
:1025C000BC4C000040800C4008800C4044800C4013
:1025D00058800C4060800C4078800C40A84C000073
:1025E00080B584B000AF78607A68F8239B0313400D
:1025F000E0221203934200D17BE0E02212039342D7
:1026000013D880229202934239D0802292029342C0
:1026100002D8002B1FD071E08022D20293421FD03B
:10262000C022120393425FD068E0A022520393427B
:1026300049D0A0225203934204D8802252039342ED
:1026400029D05BE0C022520393421DD0D022520316
:10265000934231D052E0FDF783FF031CFB6056E04C
:10266000FDF77EFF031CFB602B4B9B681A1C0F239E
:102670001340FA68111CD9400B1CFB6047E0FDF7C2
:1026800049FF031CFB6042E0244B181CFFF75EFD72
:10269000031CFB603BE0214B181CFFF757FD031C9C
:1026A000FB601D4B9B6E1A1C0F231340FA68111C14
:1026B000D9400B1CFB602AE0194B181CFFF746FDA4
:1026C000031CFB6023E0164B181CFFF73FFD031CA7
:1026D000FB60114B1B6F1A1C03231340FA68111C7B
:1026E000D9400B1CFB6012E0FFF7BAFC031CFB6037
:1026F0000DE0FFF755FC031CFB6008E0094A0A4B9C
:10270000101C191CFFF7DCFB0023FB60C046FB68B4
:10271000181CBD4604B080BD00800C4002001800AB
:1027200003001A00A84C0000AA06000080B584B07F
:1027300000AF78603B1C0F3301221A707A680F23B8
:102740001340BB60BB68022B30D002D8012B06D0EF
:102750007DE0032B50D0062B00D173E077E0454B92
:10276000DA6AF0239B0113408022520193420DD07C
:1027700080229201934204D08022120193420AD017
:102780000EE03B1C0F3302221A700EE03B1C0F338D
:1027900003221A7009E03B1C0F3304221A7004E074
:1027A0003B1C0F3305221A70C0465BE0314B9A6A1E
:1027B00003231340022B08D0032B0BD0012B0ED187
:1027C0003B1C0F3303221A7015E03B1C0F3302220F
:1027D0001A7010E03B1C0F3306221A700BE0254BD9
:1027E0009A6A80235B02134004D03B1C0F330922FA
:1027F0001A7000E0C04635E01E4B9A6A0C23134065
:10280000082B08D00C2B0BD0042B0ED13B1C0F3304
:1028100003221A7015E03B1C0F3302221A7010E0DD
:102820003B1C0F3306221A700BE0124B9A6A80236E
:102830005B03134004D03B1C0F3309221A7000E0E5
:10284000C0460FE03B1C0F3307221A700AE00A4A09
:102850000A4B101C191CFFF733FB3B1C0F330022E3
:102860001A70C0463B1C0F331B78181CBD4604B0C1
:1028700080BDC04600800C40A84C000052090000FA
:1028800080B588B000AF78600A1CFB1C1A70032367
:10289000FB613B1C1B3303221A7000233B617A68E7
:1028A0000F231340FB60FB68012B05D000D29BE097
:1028B000032B00D998E04AE0FB1C1B78092B27D892
:1028C0009A004F4BD3181B689F460423FB613B1CA7
:1028D0001B3300221A7022E00323FB613B1C1B33D5
:1028E00001221A701BE00223FB613B1C1B330222F6
:1028F0001A7014E00123FB613B1C1B3303221A7086
:102900000DE0404A404B101C191CFFF7D9FA73E048
:102910003C4A3E4B101C191CFFF7D2FA6CE03B1CE2
:102920001B331B78181C0121012200F07DF8FFF7F2
:1029300003FC374BFA695A6200F0DCF8FDF7EAFD58
:10294000031CBB60BB68181CFFF7B8FB54E0FB1C02
:102950001B78092B25D89A002E4BD3181B689F464D
:1029600000237B6124E000200121012200F05CF8BB
:1029700002237B611CE001200121012200F054F8B8
:1029800001237B6114E0244B181C02210122FFF774
:102990009DFA03237B610BE000237B6101233B61F4
:1029A00006E0184A1D4B101C191CFFF789FA23E09A
:1029B000FB68022B0BD1164B154A916A184A11403D
:1029C0007A6911433A6912040A439A6214E0104B7F
:1029D0000F4A916A134A11407A69920011433A6989
:1029E00012050A439A6207E0064AB1231B01101C34
:1029F000191CFFF765FAC046BD4608B080BDC04649
:102A0000E84C0000A84C0000DD090000E2090000CD
:102A100000800C40104D000040800C40650A000012
:102A2000FCFFFEFFF3FFEFFF80B586B000AFFB1D9C
:102A30001870BB1D19707B1D1A70FB1D1B78042BB1
:102A400029D89A00264BD3181B689F4601233B6167
:102A50000223FB6001237B6124E004233B61082304
:102A6000FB6003237B611DE010233B612023FB609F
:102A700005237B6116E040233B618023FB60072335
:102A80007B610FE080235B003B6180239B00FB6048
:102A900009237B6106E0134A134B101C191CFFF736
:102AA0000FFA1AE0BB1D1B78002B11D00F4B3A69AF
:102AB0001A627B1D1B78002B0DD0C0460C4A7B6927
:102AC000101C191CFFF720FA031C002BF6D002E0A3
:102AD000064BFA681A6200F00DF8BD4606B080BDDC
:102AE000384D0000A84C0000C50D000000800C40CF
:102AF0002C800C4080B500AF024BDA6A024B1A60A2
:102B0000BD4680BD00800C40DC01002090B583B044
:102B100000AF021C3960FB1D1A70FB1D1B78002BD7
:102B20001FD0FB1D1B78012B19D0FB1D1B78022B1E
:102B300013D0FB1D1B78032B0DD0FB1D1B78042B22
:102B400007D0FB1D1B78052B01D13F230AE0002392
:102B500008E0144B06E0144B04E0144B02E0144B65
:102B600000E0144B3A68191C11410A1C0123134060
:102B700005D1114A114B101C191CFFF7A1F910487F
:102B8000FB1D1A783B6801210C1C9C40231C191C5E
:102B9000131CDB009B189B00C31810335960BD4603
:102BA00003B090BDF0FF0000FF010000FFFF000038
:102BB000F87900007FF700004C4D0000C6020000CD
:102BC0000060004090B583B000AF021C3960FB1D6F
:102BD0001A70FB1D1B78002B1FD0FB1D1B78012BCF
:102BE00019D0FB1D1B78022B13D0FB1D1B78032B68
:102BF0000DD0FB1D1B78042B07D0FB1D1B78052B6C
:102C000001D13F230AE0002308E0144B06E0144BF7
:102C100004E0144B02E0144B00E0144B3A68191C1A
:102C200011410A1C0123134005D1114A114B101CFC
:102C3000191CFFF745F91048FB1D1A783B68012164
:102C40000C1C9C40231C191C131CDB009B189B00B4
:102C5000C31810331960BD4603B090BDF0FF0000EB
:102C6000FF010000FFFF0000F87900007FF700007F
:102C70004C4D0000F302000000600040B0B584B08D
:102C800000AFB9607B603B1C0F33011C19703B1C0B
:102C90000E331A703B1C0F331B78002B24D03B1CC7
:102CA0000F331B78012B1DD03B1C0F331B78022BDD
:102CB00016D03B1C0F331B78032B0FD03B1C0F335C
:102CC0001B78042B08D03B1C0F331B78052B01D13C
:102CD0003F230AE0002308E04F4B06E04F4B04E09F
:102CE0004F4B02E04F4B00E04F4BBA68191C1141AB
:102CF0000A1C0123134006D14C4A87235B00101C99
:102D0000191CFFF7DDF83B1C0E331B78002B13D08A
:102D10007B68002B08D03B1C0F331A78BB68101C53
:102D2000191CFFF74FFF07E03B1C0F331A78BB68F5
:102D3000101C191CFFF7EAFEBB68072B25D83C487E
:102D40003B1C0F331A783A4C3B1C0F3319780B1C81
:102D5000DB005B189B00E3185B68B96889000F24EF
:102D6000251C8D40291CC94319403B1C0E331C787F
:102D7000BB689B00251C9D402B1C1943131CDB00CA
:102D80009B189B00C31859602AE029483B1C0F334D
:102D90001A78274C3B1C0F3319780B1CDB005B188F
:102DA0009B00E31808331B68B968224C0919890095
:102DB0000F24251C8D40291CC94319403B1C0E3390
:102DC0001C78BB681B4D5B199B00251C9D402B1C70
:102DD0001943131CDB009B189B00C31808331960B0
:102DE0003B1C0E331B78002B13D17B68002B08D0C3
:102DF0003B1C0F331A78BB68101C191CFFF7E2FE4E
:102E000007E03B1C0F331A78BB68101C191CFFF736
:102E10007DFEBD4604B0B0BDF0FF0000FF01000024
:102E2000FFFF0000F87900007FF70000B84D0000B8
:102E300000600040F8FFFF3F80B582B000AF7860CF
:102E400039607B681A6C0123134000D005E0C0464E
:102E50007B685B6C3A681340FAD1BD4602B080BD16
:102E600080B586B000AFF860B9607A607B68002BEF
:102E700006D1234A86235B00101C191CFFF720F89B
:102E8000BB68002B14D1FA681E4B9A4208D11E4B26
:102E90007B617B69181CFFF7A3FB031CBB6007E089
:102EA000174A9C235B00101C191CFFF709F824E04B
:102EB000BB685B01181C796800F0EEFB031C3B61EA
:102EC0003B69203B3B613B69DB003B613A690F4B4F
:102ED0009A4206D90A4A4623FF33101C191CFEF7F2
:102EE000EFFF3A69094B13403B61FB68181C042152
:102EF000FFF7A2FFFB683A69DA60BD4606B080BD05
:102F0000CC4D00000040084070071400F87F00001E
:102F100080B582B000AF78600A1CFB1C1A70FB1CE5
:102F20001B78002B08D0C0467B685B6C002BFBD164
:102F30007B6801221A6402E07B6800221A64BD46A5
:102F400002B080BD80B582B000AF786039607A6829
:102F50001F4B9A4206D01F4AE8235B00101C191C25
:102F6000FEF7AEFF7B68181C0221FFF765FF7B6848
:102F70000A225A607B68181C0121FFF7C9FF7B6891
:102F80001B681C22191C91430A1C3B681B7B1A43BB
:102F90003B685B7B1A433B689B7B1A437B681A60E8
:102FA0003B685A683B689B687968081C111C1A1CAE
:102FB000FFF756FF3B681B781A1C7B685A607B68DA
:102FC000181C0021FFF7A4FFBD4602B080BDC0461B
:102FD00000400840CC4D000080B584B000AFF860E0
:102FE000B9607A60FB68032B04D90C4B181C77215D
:102FF000FEF766FF0A4BB968FC229203114078681D
:10300000072202400A43802149051143FA6804322D
:103010009200D150BD4604B080BDC046E44D0000D2
:1030200000C00C4080B586B000AFF860B9607A602F
:10303000FB681B687B61BB680122101C9840031C65
:10304000DB437A691A40796801231940BB68081C80
:103050009840031C1A43FB681A60BD4606B080BD49
:1030600080B584B000AF786039607B68012B03D8ED
:103070003B681B0E1B0604D00B4B181CAA21FEF745
:103080001FFF7B68002B02D0012B03D008E0074B09
:10309000FB6002E0064BFB60C046FB683A681A60C2
:1030A000BD4604B080BDC046F84D00000800084091
:1030B0000C00084080B582B000AF021CFB1D1A70E6
:1030C000FB1D1B78044A101C00211A1CFFF7AAFFE5
:1030D000BD4602B080BDC0460000084080B582B049
:1030E00000AF021CFB1D1A70FB1D1B78002B03D0C8
:1030F000044B01221A6202E0024B00221A62BD4612
:1031000002B080BD0000084080B584B000AF786098
:103110007B681B78002B02D00123FB6001E00023B9
:10312000FB607B685B78002B03D0FB6802221343B3
:10313000FB607B689B78002B03D0FB680422134361
:10314000FB60034BFA681A60BD4604B080BDC04600
:103150000000084080B500AF0020FFF7ABFF012062
:10316000FFF7A8FFBD4680BD80B584B000AFF86012
:10317000B9607A60FB681B68BA68D2431A407B6802
:103180001A43FB681A60BD4604B080BD80B586B0A6
:1031900000AFF860B9607A607B68002B06D1234AE3
:1031A000EC23FF33101C191CFEF78AFEBB68002BB2
:1031B00005D11F4B181CFFF713FA031CBB60BB683B
:1031C0005B007B617A687B69D318013B7B6178691E
:1031D000796800F061FA031C7B617B69043B7B61C9
:1031E0007B699B017B617B69C0337B617B69FF22CB
:1031F00093437B617A690F4B134005D00B4A0E4B0A
:10320000101C191CFEF75CFE7A690C4B13407B61A5
:10321000FB68191C1431094A7B69081C111C1A1C13
:10322000FFF7A2FFBD4606B080BDC0460C4E0000B1
:10323000408104003F00E0FF11020000C0FF1F00BA
:1032400080B582B000AF786039607A682C4B9A42C2
:1032500005D02C4A2C4B101C191CFEF731FE7B6844
:10326000181C00F053F87B681A683B681B8A012120
:103270000B439BB2191C3B689B7B002B02D0802325
:10328000DB0000E000230B431A437B681A607B6875
:103290001A683B681B7D002B02D080239B0500E051
:1032A00000231A437B681A603B689B7C002B07D085
:1032B0003B68DB7C10221343DBB21A1C7B689A65E7
:1032C0003B681B7B802252011A437B685A603B6833
:1032D0005A683B689B687968081C111C1A1CFFF728
:1032E00055FF3B685B7B002B02D07B681022DA60C5
:1032F0003B681B781A1C7B68DA60BD4602B080BD53
:1033000000C400400C4E00009D02000080B582B059
:1033100000AF78607A681A4B9A4205D0194A1A4B66
:10332000101C191CFEF7CCFD7B68184ADA607B681C
:1033300000221A607B68164A5A607B6800229A60F5
:103340007B6800225A617B680022DA647B68114A3C
:103350009A647B6800225A657A68094B9A4202D1C6
:103360007B6800221A657B6800229A657A68044BA4
:103370009A4202D17B680022DA65BD4602B080BD68
:1033800000C400400C4E000077030000AA0E0000AD
:1033900005100000F91F000080B582B000AF786012
:1033A0000A1CFB1C1A70C0467B681A694023134034
:1033B000FAD0FB1C1A787B685A63BD4602B080BD08
:1033C00080B582B000AF78600A1CBB1C1A80C04672
:1033D0007B681A6940231340FAD0BB1C1A887B68AB
:1033E000DA63BD4602B080BDB0B582B000AF021C4A
:1033F0003960FB1D1A70FB1D1B787F2B32D93049B9
:10340000FB1D1B781A1C0F231340083B98082C4AFD
:10341000FB1D1B781C1C0F232340083B9B08063315
:103420009B00D3185B68FA1D1278141C03222240FB
:10343000D200FF24251C95402A1CD2431A403B6829
:103440009C01FF231C40FB1D1B781D1C03232B40EC
:10345000DB00251C9D402B1C1A43831D9B00CB18B1
:103460005A6029E0174BFA1D127852B2920815499A
:10347000F81D007840B28008C03080004158F81D27
:103480000078041C03202040C000FF24251C854038
:10349000281CC043084039688C01FF210C40F91DED
:1034A00009780D1C03212940C900251C8D40291CC9
:1034B0000143C0329200D150BD4602B0B0BDC046FB
:1034C00000ED00E000E100E080B582B000AF786080
:1034D0007B685A1E0C4B9A4201D9012310E00B4B1A
:1034E0007A68013A5A6001235B42181C0321FFF7F6
:1034F0007BFF064B00229A60044B07221A600023D0
:10350000181CBD4602B080BDFFFFFF0010E000E0C8
:1035100080B500AFBD4680BD80B500AF034B1B68D2
:103520005A1C024B1A60BD4680BDC0468003002075
:1035300080B584B000AF7860064B1B68FB60C04666
:10354000044B1A68FB68D21A7B689A42F8D3BD46CE
:1035500004B080BD8003002080B586B000AF00239A
:103560007B61FFF7D5FF01200421FFF789F90020D7
:10357000FCF784FEFCF74AFF444B181CFFF730F8B9
:10358000031C181CFA23990000F086F8031C181C71
:10359000FFF79AFF031C002B00D0FEE7FDF764F84D
:1035A0003B4B181C00F07CFAFDF784FD031C002B3C
:1035B00000D0FEE7FA23DB00181CFFF7B9FF002359
:1035C000BB60BB68FB60FB683B61BB1D01221A70DE
:1035D000FB1DBA1D12781A70FB1D1B78002B03D03F
:1035E000BB680133BB6002E0BB68013BBB60BB68EA
:1035F0000E2B02DDFB1D00221A70BB68002B02D1CE
:10360000FB1D01221A70BB1D1B78002B0AD0FB6822
:103610000133FB603B69092B07DD1E4B181C00F0D2
:103620003FFA02E0FB68013BFB60FB68122B02DD06
:10363000BB1D00221A70FB68002B02D1BB1D0122AA
:103640001A703B6901333B613B69642B0CD1002349
:10365000BB60BB68FB60FB683B61BB1D01221A704D
:10366000FB1DBA1D12781A707B69002B05D0002053
:10367000FCF7FEFE00237B6104E00F20FCF7F8FE60
:1036800001237B616420FFF753FFA5E75000020090
:10369000204E0000384E0000002934D001230022C3
:1036A00010B488422CD301242407A14204D28142C1
:1036B00002D209011B01F8E7E400A14204D28142D1
:1036C00002D249005B00F8E7884201D3401A1A434E
:1036D0004C08A04202D3001B5C0822438C08A04285
:1036E00002D3001B9C082243CC08A04202D3001B3B
:1036F000DC082243002803D01B0901D00909E3E7B5
:10370000101C10BC7047002801D00020C04307B433
:10371000024802A14018029003BDC04619000000F3
:103720000029F0D003B5FFF7B9FF0EBC4243891A58
:103730001847C0467047C0461C2101231B0498420D
:1037400001D3000C10391B0A984201D3000A083932
:103750001B09984201D30009043902A2105C4018E9
:103760007047C0460403020201010101000000008D
:1037700000000000084B10B5041C002B02D00021F3
:1037800000E000BF054B1868836A002B00D0984703
:10379000201CFDF7DDFBC04600000000A44F000028
:1037A000134B70B51D68041C1E1C002D05D0AA69A2
:1037B000002A02D1281C00F077F80E4B9C4201D160
:1037C0006C6808E00C4B9C4201D1AC6803E00B4BE9
:1037D0009C4200D1EC680C22A35E002B02D00E2389
:1037E000E05E04E03368092201201A60404270BDA7
:1037F0008C000020404F0000604F0000804F000010
:10380000F8B5041C071C4834002C12D0A568666863
:10381000013E0CD4AB89012B07D90E22AB5E0133DC
:1038200003D0381C291C00F089FE6835F0E72468B5
:10383000EAE7F8BD002310B5041C03604360836011
:1038400081814366C281036143618361191C08223F
:103850005C3000F0C8F8054B24626362044BA3623D
:10386000044BE362044B236310BDC046053C0000DB
:103870002D3C0000653C0000913C000070B54B1EE3
:1038800068255D430E1C291C743100F0B5F8041E38
:1038900008D00021016046602A1C0C30A06068320C
:1038A00000F0A1F8201C70BD836913B5041C002B27
:1038B00027D18364C3640365124B134A1B68826279
:1038C000984201D101238361201C00F01FF8606041
:1038D000201C00F01BF8A060201C00F017F8042149
:1038E000E06000226068FFF7A5FFA06809210122BF
:1038F000FFF7A0FFE06812210222FFF79BFF0123E0
:10390000A36113BDA44F000001380000F8B51D4BA2
:10391000071C1E68B269002A02D1301CFFF7C4FFE1
:103920004836B4687368013B05D40C22A55E002DAF
:1039300010D06834F7E73368002B06D1381C042117
:10394000FFF79CFF3060002801D03668E9E70C23C0
:103950003B6016E001235B42E381201C0123A3812D
:1039600065662560A560656025616561A5615C305F
:10397000291C082200F037F86563A563A564E56497
:10398000201CF8BDA44F000070B50E4B0E4D002456
:10399000ED1AAD101E1CAC4204D0A300F35898479A
:1039A0000134F8E700F0F0FE084B094D0024ED1A51
:1039B000AD101E1CAC4204D0A300F358984701344C
:1039C000F8E770BD900000209000002090000020DB
:1039D0009400002010B50023934203D0CC5CC45463
:1039E0000133F9E710BD031C8218934202D019700D
:1039F0000133FAE77047000070B50323CD1C9D43E7
:103A00000835061C0C2D01D20C2501E0002D3FDBF2
:103A10008D423DD3204B1C681A1C211C002913D059
:103A20000868431B0DD40B2B02D90B60CC181EE089
:103A30008C4202D1636813601AE0486860600C1C15
:103A400016E00C1C4968E9E7144C2068002803D1F3
:103A5000301C00F03FF82060301C291C00F03AF8C0
:103A6000431C15D0C41C03239C4384420AD1256007
:103A7000201C0B300722231D9043C31A0BD05A423F
:103A8000E25008E0211A301C00F024F80130EED199
:103A90000C233360002070BDE8010020E401002009
:103AA0000FB40B4B13B51C68002C05D0A369002B79
:103AB00002D1201CFFF7F8FE05ABA168201C049A78
:103AC000019300F02FF916BC08BC04B01847C0469B
:103AD0008C00002038B5074C0023051C081C23600F
:103AE000FDF78CFA431C03D12368002B00D02B6018
:103AF00038BDC04684030020F7B51E1C3C4B041C97
:103B00001D680F1C0192002D05D0AA69002A02D160
:103B1000281CFFF7C9FE374B9C4201D16C6808E0B6
:103B2000354B9C4201D1AC6803E0344B9C4200D140
:103B3000EC68019B022B57D8002E55DB281C211C5A
:103B400000F0FCFC00236360A361A3891A0603D57F
:103B5000281C216900F098FDA38983229343A38147
:103B6000019B022B13D0002F25D1002E01D18026DE
:103B7000F600301C00F072FD071E18D18020C00036
:103B800000F06CFD071E10D10120404200E0002033
:103B9000A38902221343A3810023A360231C47337C
:103BA000236023610123636120E08026F600A3895E
:103BB00080221343A381019A012A04D1A3891343CC
:103BC000A3817342A3610E4B0020AB62A3892760DF
:103BD000276166611A0709D5032213405A425341EF
:103BE0005B421E40A66001E001204042FEBDC0468F
:103BF0008C000020404F0000604F0000804F00000C
:103C00000138000038B50C1C0E25495F00F084FD1A
:103C1000002803DB626D1318636503E0A289024B81
:103C20001340A38138BDC046FFEFFFFFF8B51E1C4F
:103C30008B89051C0C1C171CDA0505D50E23C95EE3
:103C40000022022300F0A6FCA289054B281C134089
:103C5000A3810E22A15E331C3A1C00F04DFBF8BD7F
:103C6000FFEFFFFF38B50C1C0E25495F00F092FCFA
:103C7000A389421C03D1054A1340A38104E080229A
:103C800052011343A381606538BDC046FFEFFFFFBB
:103C900008B50E23C95E00F0B5FB08BD0023C25C69
:103CA0000133002AFBD1581E7047031C002010B5B9
:103CB00082420FD01C780878A04201D1012A03D19A
:103CC00018780B78C01A05E0013A0028F8D00133C3
:103CD0000131EFE710BD936810B5013B9360002BF5
:103CE00005DA9469A34208DBCBB20A2B05D013682E
:103CF000581C10601970C8B201E000F0A5FA10BDA0
:103D0000F8B5061C0F1C141CD518AC4208D021783D
:103D1000301C3A1CFFF7DFFF0134431CF5D100E0F3
:103D20000020F8BDF0B59FB0061C0F1C0392059350
:103D3000002804D08169002901D1FFF7B5FD754B3A
:103D40009F4201D1776808E0734B9F4201D1B76869
:103D500003E0724B9F4200D1F768BB891A070AD56E
:103D60003B69002B07D006AD00236B6120236B76E7
:103D70003023AB763BE0301C391C00F0D1FA002830
:103D8000F1D001204042C2E0059A111D1268059150
:103D9000002A76DB0992013423782E2B00D181E0B2
:103DA00021785F48032200F063FC002807D05C49BB
:103DB0002A68431A40209840104328600134217833
:103DC000631C584806220393297600F051FC002812
:103DD00000D18AE0544B002B7ED1059B072207338C
:103DE0009343083305936A69049953186B61039CE4
:103DF0002378002B04D10399611A029110D003E0BB
:103E0000252BF8D00134F3E7301C391C039A029BB0
:103E1000FFF776FF013075D06A69029953186B611C
:103E20002378002B6ED0012252426A606A4600233A
:103E30005B3201342B60EB60AB601370AB652178B3
:103E40003A48052200F014FC002808D0374A013413
:103E5000831A012098402B6818432860EFE72B68ED
:103E6000D90603D56A4620215B3211701A0703D5A3
:103E70006A462B215B32117022782A2A84D0099B52
:103E800005E05242EA60022213432B6083E7227866
:103E9000303A092A04D80A214B4301349B18F6E72B
:103EA000099379E763782A2B09D1059B02341A1DFF
:103EB0001B680592002B0DDA01235B420AE00134F6
:103EC00000232278303A092A04D80A214B430134CE
:103ED0009B18F6E7079363E705AB0093301C291C9A
:103EE0003A1C134B00E000BF07E005AB0093301C09
:103EF000291C3A1C0E4B00F091F8049004990131F2
:103F000000D070E7BB895A0600D53AE70B981FB07E
:103F1000F0BDC046404F0000604F0000804F0000E1
:103F2000AE4F0000B24F000000000000A84F00009C
:103F3000013D0000F7B5151C01930A698B68061C4A
:103F40000C1C934200DA131C221C2B6043321278A3
:103F5000002A01D001332B602068800602D52B682F
:103F600002332B60216806270F401FD0231C4333E8
:103F70001B785A1E9341226892061FD5E1184031E2
:103F80003020C870211C5A1C45310978A2184032D3
:103F90000233D17012E0221C301C01991932012326
:103FA000089FB847013011D0009F01370097E068A3
:103FB0002968009F431A9F42EDDBD7E7221C301C83
:103FC00001994332089FB847013002D10120404295
:103FD00023E0206806212B68E268014000250429BF
:103FE00003D1D51AEB43DB171D40A26823699A421F
:103FF00001DDD31AED1800270097009FAF420BDABE
:10400000221C301C01991A320123089FB847013045
:10401000DCD0009F0137EFE70020FEBDF0B58BB08C
:1040200007930D1C0B7E4335069205900C1C109ACD
:1040300004956E2B00D1A7E011D8632B22D009D8AC
:10404000002B00D1B0E0582B00D0C0E045310B7000
:104050007B4D4EE0642B1CD0692B1AD0B7E0732B3C
:1040600000D1A5E009D86F2B29D0702B00D0AEE08D
:104070000E68202333430B6036E0752B1FD0782B5E
:1040800032D0A4E013680D1C191D423511601B6865
:104090009FE0216813680E0603D5191D11601E6884
:1040A00005E04806F9D5191D116000215E5E644BDC
:1040B000002E3BDA049D2D2276422A7036E02168DC
:1040C00013680E0603D5191D11601E6804E048062A
:1040D000F9D5191D1E881160594B227E03930827BC
:1040E0006F2A1ED00A271CE0231C78214533554D2A
:1040F000197011682368081D039510601E0601D50C
:104100000E6802E05806FBD50E88D90702D520229A
:10411000134323601027002E03D1226820239A43E3
:104120002260231C002243331A7001E003930A2704
:104130006368A360002B03DB256804229543256098
:10414000002E02D1049D002B0ED0049D301C391C82
:10415000FFF7E6FA0398013D435C301C2B70391CD5
:10416000FFF79AFA061EF1D1082F09D12168C90775
:1041700006D5626823699A4202DC013D30232B7028
:10418000049E731B23612AE00868136849690506C9
:1041900004D5181D10601B68196005E04606F8D5A7
:1041A000181D10601B68198000232361049D16E010
:1041B0001368191D11601D68281CFFF76FFD6368E7
:1041C0002061984200D923612069606004E0251CC9
:1041D00042352B7001232361049E00233370079E18
:1041E00005980096211C09AA069BFFF7A3FE013043
:1041F00002D10120404221E02A1C0598069923693A
:10420000079DA8470130F4D02668B60705D4099B5E
:10421000E068984212DA181C10E00025E06809995D
:10422000431A9D42F3DA221C05980699193201239C
:10423000079EB0470130DCD00135EFE70BB0F0BD91
:10424000B94F0000CA4F000070B5051C0E1C141CAD
:10425000002804D08269002A01D1FFF725FB234BF7
:104260009C4201D16C6808E0214B9C4201D1AC68B2
:1042700003E0204B9C4200D1EC68A369A360A389B2
:104280001A070AD52369002B07D022682369F6B2E2
:10429000D01A626990420FDB08E0281C211C00F054
:1042A0003FF80028F1D0012040421DE0281C211CCD
:1042B00000F044F90028F6D1A3680130013BA36067
:1042C00023685A1C22601E706369984205D0A38936
:1042D000301CDA0708D50A2E06D1281C211C00F054
:1042E0002DF90028DFD1301C70BDC046404F0000C2
:1042F000604F0000804F000038B5084C051C0020BE
:104300002060081C111C1A1CFCF7B8FE431C03D1CA
:104310002368002B00D02B6038BDC04684030020EA
:10432000344B70B51D68061C0C1C002D05D0A96906
:10433000002902D1281CFFF7B7FA2F4B9C4201D16C
:104340006C6808E02D4B9C4201D1AC6803E02C4B1B
:104350009C4200D1EC68A28993B2190721D4D906F6
:1043600005D40923336040231A43A2813FE05A0752
:1043700013D5616B002908D0231C4433994202D025
:10438000301C00F081F900236363A3892422934346
:10439000A3810023636023692360A3890822134358
:1043A000A381216900290BD1A389A02292001A4080
:1043B00080239B009A4203D0301C211C00F0FEF8A1
:1043C000A38901221A4005D061690022A2604A42F5
:1043D000A26103E0990700D46269A260226900200B
:1043E000824206D1190604D540221343A38101203D
:1043F000404270BD8C000020404F0000604F000024
:10440000804F000038B5074C0023051C081C2360B2
:10441000FCF794FD431C03D12368002B00D02B60D4
:1044200038BDC04684030020F7B58B89051C0C1CE1
:1044300019075ED46268002A02DC276C002F1ADD9F
:10444000E76A002F17D000222E682A6080225201CE
:104450001A4001D0626D15E0281C216A0123B8477B
:10446000021C411C0ED12B68002B0BD01D2B01D040
:10447000162B02D12E6000205EE0A38940210B4361
:10448000A38159E0A3895F0706D56168636B521A5F
:10449000002B01D0276CD21B281C216A0023E76A5D
:1044A000B847A289411C06D12B68002B03D01D2BD5
:1044B00001D0162B19D10023636023692360D70430
:1044C00005D5411C02D12A68002A00D16065616BC4
:1044D0002E600029CFD0231C4433994202D0281CDF
:1044E00000F0D2F80020606326E040231A43A28146
:1044F00022E02669002EBED027680022BF1B01974C
:104500002660990700D16269A260019F002FB2DD89
:10451000281C216A321C019BA76AB847002806DCC8
:10452000A389402213430120A381404204E0019F5C
:1045300036183F1A0197E8E7FEBD00000A6938B552
:10454000051C0C1C002A01D100201CE0002804D00E
:104550008369002B01D1FFF7A7F90B4B9C4201D1D6
:104560006C6808E0094B9C4201D1AC6803E0084B41
:104570009C4200D1EC680C22A35E002BE4D0281CE6
:10458000211CFFF751FF38BD404F0000604F000075
:10459000804F000038B5084C051C00202060081C26
:1045A000111C1A1CFCF7F2FC431C03D12368002BDE
:1045B00000D02B6038BDC04684030020F0B58B8945
:1045C00091B0051C0C1C9A0725D40E23C95E002946
:1045D00006DAA78980231F400FD0002740260EE06F
:1045E00001AA00F0ADF80028F3DB029BF0273F02A0
:1045F000184A1F40BF187B425F418026F600281CE6
:10460000311CFFF7F9F900280CD1A3899A051FD4B2
:1046100002221343A381231C473323602361012318
:10462000636115E00C4B8022AB62A38920601343C9
:10463000A38120616661002F0AD00E23E15E281C51
:1046400000F090F8002803D0A38901221343A3812E
:1046500011B0F0BD00E0FFFF0138000008B5034BCA
:10466000011C1868FFF7C8F908BDC0468C0000207F
:10467000C9B28218904204D003788B4202D0013034
:10468000F8E700207047000030B5002940D0043919
:104690000B68002B00DAC9181E4A1368141C002B83
:1046A00002D14B60116033E099420FD208680A18BA
:1046B0009A4205D113685268C01808604A6000E049
:1046C0004B60216024E08A4203D8131C5A68002AF8
:1046D000F9D11D685C198C420BD10968691858180A
:1046E0001960904214D114685268091919605A600F
:1046F0000EE08C4202D90C23036009E008680C1814
:10470000944203D114685268001908604A605960E5
:1047100030BDC046E801002038B5084C051C00201B
:104720002060081C111C1A1CFCF73CFC431C03D124
:104730002368002B00D02B6038BDC04684030020C6
:1047400038B5074C0023051C081C111C2360FCF71E
:1047500005FC431C03D12368002B00D02B6038BD1F
:104760008403002038B5074C0023051C081C236077
:10477000FCF702FC431C03D12368002B00D02B6004
:1047800038BDC04684030020F8B5C046F8BC08BC5C
:104790009E467047F8B5C046F8BC08BC9E467047B8
:1047A000050000000000000080250000000000005F
:1047B0002F686F6D652F6E696B612F536F6674770D
:1047C0006172652F53696D706C6963697479537494
:1047D0007564696F342F53696D706C69636974799E
:1047E00053747564696F5F76342F646576656C6F9A
:1047F0007065722F73646B732F65787833322F7600
:10480000342E342E312F2F656D6C69622F696E63E3
:104810002F656D5F6770696F2E68000002000000F1
:104820000A000000020000000B00000053686172E3
:1048300070204C53303133423744483033202331D9
:10484000000000002F686F6D652F6E696B612F533C
:104850006F6674776172652F53696D706C696369F7
:10486000747953747564696F342F53696D706C6912
:104870006369747953747564696F5F76342F646506
:1048800076656C6F7065722F73646B732F657878C3
:1048900033322F76342E342E312F2F656D6C6962B2
:1048A0002F696E632F656D5F6770696F2E680000FA
:1048B000050000000000000040420F00050100005C
:1048C0000000000000000000010001004865617068
:1048D00020616E6420737461636B20636F6C6C691C
:1048E00073696F6E0A00000000040A0A04030606DA
:1048F00008020000000000000E040E1F081F0C1F1D
:104900000E0E00001000010E0E0E0F0E071F1F0EE0
:10491000110E1C110111110E0F0E0F1E1F1111117E
:1049200011111F0E000E04000200010010000C0007
:104930000104080106000000000000000200000061
:104940000000000C040600000000000000040A0A39
:104950001E130904040404040000000011061108D9
:104960000C0102101111060608000211101111119C
:104970000901011111040809011B11111111110183
:10498000041111111111100200080A0004000100A5
:104990001000121E010000010400000000000000D1
:1049A00002000000000000020408020000000000F5
:1049B00000040A1F01080502020815040000001087
:1049C000190410040A0F010811110606041F04102F
:1049D0001011110111010101110408050115131134
:1049E00011111101041111110A110802010811001D
:1049F000080E0D0E160E02110D060C09040B0D0EFD
:104A00000F160D0E0711111111111F0204081500C8
:104A1000000000000004000A0E04020002080E1F3D
:104A2000001F00081504080809100F040E1E0000DE
:104A30000200080816110F01110F0F1D1F040803B3
:104A4000011515110F110F0E04111115040A04029E
:104A500002080000001013011911071113040805C2
:104A60000415131111191301021111110A11080172
:104A700004100800000000000000001F10021500D4
:104A80000208150406000004130404101F1011028C
:104A900011100606041F0404151F11011101011154
:104AA0001104080501111911011505100411111542
:104AB0000A04020204080000001E1101111F021E58
:104AC00011040803041511110F1E010E0211111516
:104AD000041E040204080000000000000000000A98
:104AE0000F19090004040404040006021104021151
:104AF0000811110211080604080002001511111115
:104B0000090101111104090901111111010909100B
:104B100004110A1511040102080800000011111106
:104B200011010210110409050411111101100110E5
:104B300012190A150A100202040800000000000001
:104B40000004000A04181600080200000200060112
:104B50000E0E1F0E080E0E020E06000210000104BB
:104B60000E110F0E071F010E110E06111F11110E4F
:104B70000116110F040E040A11041F0E100E001F5F
:104B8000001E0F0E1E0E020E110E06090E11110E42
:104B90000110010F0C16040A110E1F0C0406000070
:104BA0000000000000000000000000000000000005
:104BB00000000000000000000000000000000000F5
:104BC00000000000000000000000000000000000E5
:104BD00000000000000000000000000000000000D5
:104BE00000000000000000000000000000000000C5
:104BF00000000000000000000000000000000000B5
:104C00000000000000000000C4150000C4150000F2
:104C1000D2150000E8150000041600002016000060
:104C20001B5B48001B4800001B4100001B420000AA
:104C30001B4300001B440000010001002F686F6D42
:104C4000652F6E696B612F536F6674776172652F84
:104C500053696D706C696369747953747564696FB5
:104C6000342F53696D706C6963697479537475641A
:104C7000696F5F76342F646576656C6F7065722F2F
:104C800073646B732F65787833322F76342E342E1D
:104C9000312F2F656D6C69622F696E632F656D5FB3
:104CA000636D752E680000002E2E2F656D6C696295
:104CB0002F656D5F636D752E630000008025000019
:104CC0005A250000602500005425000080250000C2
:104CD000802500006625000070250000802500006A
:104CE000802500007A25000010290000102900000E
:104CF000CA280000D8280000E6280000F428000098
:104D000010290000102900001029000002290000CD
:104D1000A229000060290000662900007629000011
:104D2000A2290000A229000086290000A229000073
:104D3000A229000098290000842A0000762A000099
:104D40005A2A00004C2A0000682A00002F686F6D64
:104D5000652F6E696B612F536F6674776172652F73
:104D600053696D706C696369747953747564696FA4
:104D7000342F53696D706C69636974795374756409
:104D8000696F5F76342F646576656C6F7065722F1E
:104D900073646B732F65787833322F76342E342E0C
:104DA000312F2F656D6C69622F696E632F656D5FA2
:104DB0006770696F2E6800002E2E2F656D6C69621A
:104DC0002F656D5F6770696F2E6300002E2E2F6553
:104DD0006D6C69622F656D5F6C65756172742E63B1
:104DE000000000002E2E2F656D6C69622F656D5FCF
:104DF0007072732E630000002E2E2F656D6C696239
:104E00002F656D5F7274632E630000002E2E2F6578
:104E10006D6C69622F656D5F75736172742E6300CE
:104E200054686520526F6F6D2054657065726174AF
:104E30007572653A202000001B44000000202020ED
:104E4000202020202020282828282820202020203A
:104E5000202020202020202020202020208810100A
:104E60001010101010101010101010101004040466
:104E70000404040404040410101010101010414124
:104E80004141414101010101010101010101010112
:104E90000101010101010101101010101010424226
:104EA00042424242020202020202020202020202E2
:104EB0000202020202020202101010102000000082
:104EC00000000000000000000000000000000000E2
:104ED00000000000000000000000000000000000D2
:104EE00000000000000000000000000000000000C2
:104EF00000000000000000000000000000000000B2
:104F000000000000000000000000000000000000A1
:104F10000000000000000000000000000000000091
:104F20000000000000000000000000000000000081
:104F30000000000000000000000000000000000071
:104F40000000000000000000000000000000000061
:104F50000000000000000000000000000000000051
:104F60000000000000000000000000000000000041
:104F70000000000000000000000000000000000031
:104F80000000000000000000000000000000000021
:104F90000000000000000000000000000000000011
:104FA000430000002C000020232D302B2000686CD3
:104FB0004C0065666745464700303132333435363C
:104FC0003738394142434445460030313233343575
:104FD000363738396162636465660000000000009E
:084FE0000CB1FF7F010000008D
:104FE80000366E0100800000890700000000000004
:104FF800F80000201000000015000000F00100205B
:1050080040030020001000003C4E0000000000009B
:10501800404F0000604F0000804F0000000000007B
:10502800000000000000000000000000A04F000089
:105038000000000000000000000000000000000068
:105048000000000000000000000000000000000058
:105058000000000000000000000000000000000048
:105068000000000000000000000000002C000020EC
:0C507800B50000008D00000000000000EA
:04000003000004E510
:00000001FF
